{
  "contractName": "BloodzNFT",
  "abi": [
    {
      "inputs": [
        {
          "internalType": "bytes32",
          "name": "_keyHash",
          "type": "bytes32"
        },
        {
          "internalType": "address",
          "name": "_vrfCoordinatorAddress",
          "type": "address"
        },
        {
          "internalType": "address",
          "name": "_linkTokenAddress",
          "type": "address"
        }
      ],
      "stateMutability": "nonpayable",
      "type": "constructor"
    },
    {
      "anonymous": false,
      "inputs": [
        {
          "indexed": true,
          "internalType": "address",
          "name": "owner",
          "type": "address"
        },
        {
          "indexed": true,
          "internalType": "address",
          "name": "approved",
          "type": "address"
        },
        {
          "indexed": true,
          "internalType": "uint256",
          "name": "tokenId",
          "type": "uint256"
        }
      ],
      "name": "Approval",
      "type": "event"
    },
    {
      "anonymous": false,
      "inputs": [
        {
          "indexed": true,
          "internalType": "address",
          "name": "owner",
          "type": "address"
        },
        {
          "indexed": true,
          "internalType": "address",
          "name": "operator",
          "type": "address"
        },
        {
          "indexed": false,
          "internalType": "bool",
          "name": "approved",
          "type": "bool"
        }
      ],
      "name": "ApprovalForAll",
      "type": "event"
    },
    {
      "anonymous": false,
      "inputs": [
        {
          "indexed": true,
          "internalType": "address",
          "name": "from",
          "type": "address"
        },
        {
          "indexed": true,
          "internalType": "address",
          "name": "to",
          "type": "address"
        },
        {
          "indexed": true,
          "internalType": "uint256",
          "name": "tokenId",
          "type": "uint256"
        }
      ],
      "name": "Transfer",
      "type": "event"
    },
    {
      "inputs": [
        {
          "internalType": "address",
          "name": "to",
          "type": "address"
        },
        {
          "internalType": "uint256",
          "name": "tokenId",
          "type": "uint256"
        }
      ],
      "name": "approve",
      "outputs": [],
      "stateMutability": "nonpayable",
      "type": "function"
    },
    {
      "inputs": [
        {
          "internalType": "address",
          "name": "owner",
          "type": "address"
        }
      ],
      "name": "balanceOf",
      "outputs": [
        {
          "internalType": "uint256",
          "name": "",
          "type": "uint256"
        }
      ],
      "stateMutability": "view",
      "type": "function"
    },
    {
      "inputs": [
        {
          "internalType": "uint256",
          "name": "",
          "type": "uint256"
        }
      ],
      "name": "characters",
      "outputs": [
        {
          "internalType": "uint256",
          "name": "strengh",
          "type": "uint256"
        },
        {
          "internalType": "uint256",
          "name": "speed",
          "type": "uint256"
        },
        {
          "internalType": "uint256",
          "name": "stamina",
          "type": "uint256"
        },
        {
          "internalType": "string",
          "name": "name",
          "type": "string"
        }
      ],
      "stateMutability": "view",
      "type": "function"
    },
    {
      "inputs": [
        {
          "internalType": "uint256",
          "name": "tokenId",
          "type": "uint256"
        }
      ],
      "name": "getApproved",
      "outputs": [
        {
          "internalType": "address",
          "name": "",
          "type": "address"
        }
      ],
      "stateMutability": "view",
      "type": "function"
    },
    {
      "inputs": [
        {
          "internalType": "address",
          "name": "owner",
          "type": "address"
        },
        {
          "internalType": "address",
          "name": "operator",
          "type": "address"
        }
      ],
      "name": "isApprovedForAll",
      "outputs": [
        {
          "internalType": "bool",
          "name": "",
          "type": "bool"
        }
      ],
      "stateMutability": "view",
      "type": "function"
    },
    {
      "inputs": [],
      "name": "keyHash",
      "outputs": [
        {
          "internalType": "bytes32",
          "name": "",
          "type": "bytes32"
        }
      ],
      "stateMutability": "view",
      "type": "function"
    },
    {
      "inputs": [],
      "name": "name",
      "outputs": [
        {
          "internalType": "string",
          "name": "",
          "type": "string"
        }
      ],
      "stateMutability": "view",
      "type": "function"
    },
    {
      "inputs": [
        {
          "internalType": "uint256",
          "name": "tokenId",
          "type": "uint256"
        }
      ],
      "name": "ownerOf",
      "outputs": [
        {
          "internalType": "address",
          "name": "",
          "type": "address"
        }
      ],
      "stateMutability": "view",
      "type": "function"
    },
    {
      "inputs": [],
      "name": "randomResult",
      "outputs": [
        {
          "internalType": "uint256",
          "name": "",
          "type": "uint256"
        }
      ],
      "stateMutability": "view",
      "type": "function"
    },
    {
      "inputs": [
        {
          "internalType": "bytes32",
          "name": "requestId",
          "type": "bytes32"
        },
        {
          "internalType": "uint256",
          "name": "randomness",
          "type": "uint256"
        }
      ],
      "name": "rawFulfillRandomness",
      "outputs": [],
      "stateMutability": "nonpayable",
      "type": "function"
    },
    {
      "inputs": [
        {
          "internalType": "address",
          "name": "from",
          "type": "address"
        },
        {
          "internalType": "address",
          "name": "to",
          "type": "address"
        },
        {
          "internalType": "uint256",
          "name": "tokenId",
          "type": "uint256"
        }
      ],
      "name": "safeTransferFrom",
      "outputs": [],
      "stateMutability": "nonpayable",
      "type": "function"
    },
    {
      "inputs": [
        {
          "internalType": "address",
          "name": "from",
          "type": "address"
        },
        {
          "internalType": "address",
          "name": "to",
          "type": "address"
        },
        {
          "internalType": "uint256",
          "name": "tokenId",
          "type": "uint256"
        },
        {
          "internalType": "bytes",
          "name": "_data",
          "type": "bytes"
        }
      ],
      "name": "safeTransferFrom",
      "outputs": [],
      "stateMutability": "nonpayable",
      "type": "function"
    },
    {
      "inputs": [
        {
          "internalType": "address",
          "name": "operator",
          "type": "address"
        },
        {
          "internalType": "bool",
          "name": "approved",
          "type": "bool"
        }
      ],
      "name": "setApprovalForAll",
      "outputs": [],
      "stateMutability": "nonpayable",
      "type": "function"
    },
    {
      "inputs": [
        {
          "internalType": "bytes4",
          "name": "interfaceId",
          "type": "bytes4"
        }
      ],
      "name": "supportsInterface",
      "outputs": [
        {
          "internalType": "bool",
          "name": "",
          "type": "bool"
        }
      ],
      "stateMutability": "view",
      "type": "function"
    },
    {
      "inputs": [],
      "name": "symbol",
      "outputs": [
        {
          "internalType": "string",
          "name": "",
          "type": "string"
        }
      ],
      "stateMutability": "view",
      "type": "function"
    },
    {
      "inputs": [
        {
          "internalType": "uint256",
          "name": "tokenId",
          "type": "uint256"
        }
      ],
      "name": "tokenURI",
      "outputs": [
        {
          "internalType": "string",
          "name": "",
          "type": "string"
        }
      ],
      "stateMutability": "view",
      "type": "function"
    },
    {
      "inputs": [
        {
          "internalType": "address",
          "name": "from",
          "type": "address"
        },
        {
          "internalType": "address",
          "name": "to",
          "type": "address"
        },
        {
          "internalType": "uint256",
          "name": "tokenId",
          "type": "uint256"
        }
      ],
      "name": "transferFrom",
      "outputs": [],
      "stateMutability": "nonpayable",
      "type": "function"
    },
    {
      "inputs": [],
      "name": "vrfCoordinator",
      "outputs": [
        {
          "internalType": "address",
          "name": "",
          "type": "address"
        }
      ],
      "stateMutability": "view",
      "type": "function"
    },
    {
      "inputs": [
        {
          "internalType": "uint256",
          "name": "userProviderSeed",
          "type": "uint256"
        },
        {
          "internalType": "string",
          "name": "name",
          "type": "string"
        }
      ],
      "name": "requestNewRandomCharacter",
      "outputs": [
        {
          "internalType": "bytes32",
          "name": "",
          "type": "bytes32"
        }
      ],
      "stateMutability": "nonpayable",
      "type": "function"
    },
    {
      "inputs": [
        {
          "internalType": "uint256",
          "name": "tokenId",
          "type": "uint256"
        },
        {
          "internalType": "string",
          "name": "_tokenURI",
          "type": "string"
        }
      ],
      "name": "setTokenURI",
      "outputs": [],
      "stateMutability": "nonpayable",
      "type": "function"
    }
  ],
  "bytecode": "0x60c06040523480156200001157600080fd5b5060405162003a2138038062003a218339818101604052810190620000379190620002f8565b81816040518060400160405280600a81526020017f426c6f6f647a4e5a4253000000000000000000000000000000000000000000008152506040518060400160405280600481526020017f424c445a000000000000000000000000000000000000000000000000000000008152508160009080519060200190620000bd929190620001a3565b508060019080519060200190620000d6929190620001a3565b5050508173ffffffffffffffffffffffffffffffffffffffff1660a08173ffffffffffffffffffffffffffffffffffffffff16815250508073ffffffffffffffffffffffffffffffffffffffff1660808173ffffffffffffffffffffffffffffffffffffffff1681525050505081600960006101000a81548173ffffffffffffffffffffffffffffffffffffffff021916908373ffffffffffffffffffffffffffffffffffffffff1602179055508260088190555067016345785d8a0000600a81905550505050620003b9565b828054620001b19062000383565b90600052602060002090601f016020900481019282620001d5576000855562000221565b82601f10620001f057805160ff191683800117855562000221565b8280016001018555821562000221579182015b828111156200022057825182559160200191906001019062000203565b5b50905062000230919062000234565b5090565b5b808211156200024f57600081600090555060010162000235565b5090565b600080fd5b6000819050919050565b6200026d8162000258565b81146200027957600080fd5b50565b6000815190506200028d8162000262565b92915050565b600073ffffffffffffffffffffffffffffffffffffffff82169050919050565b6000620002c08262000293565b9050919050565b620002d281620002b3565b8114620002de57600080fd5b50565b600081519050620002f281620002c7565b92915050565b60008060006060848603121562000314576200031362000253565b5b600062000324868287016200027c565b93505060206200033786828701620002e1565b92505060406200034a86828701620002e1565b9150509250925092565b7f4e487b7100000000000000000000000000000000000000000000000000000000600052602260045260246000fd5b600060028204905060018216806200039c57607f821691505b60208210811415620003b357620003b262000354565b5b50919050565b60805160a05161363b620003e660003960008181610ad40152610f2e01526000610ef2015261363b6000f3fe608060405234801561001057600080fd5b506004361061012c5760003560e01c806361728f39116100ad578063a22cb46511610071578063a22cb46514610358578063a3e56fa814610374578063b88d4fde14610392578063c87b56dd146103ae578063e985e9c5146103de5761012c565b806361728f39146102a05780636352211e146102be57806370a08231146102ee57806394985ddd1461031e57806395d89b411461033a5761012c565b8063162094c4116100f4578063162094c4146101fb57806323b872dd1461021757806342619f661461023357806342842e0e146102515780634810bc591461026d5761012c565b806301ffc9a71461013157806306396dbe1461016157806306fdde0314610191578063081812fc146101af578063095ea7b3146101df575b600080fd5b61014b60048036038101906101469190612057565b61040e565b604051610158919061209f565b60405180910390f35b61017b60048036038101906101769190612236565b6104f0565b60405161018891906122ab565b60405180910390f35b610199610587565b6040516101a6919061234e565b60405180910390f35b6101c960048036038101906101c49190612370565b610619565b6040516101d691906123de565b60405180910390f35b6101f960048036038101906101f49190612425565b61069e565b005b61021560048036038101906102109190612236565b6107b6565b005b610231600480360381019061022c9190612465565b610814565b005b61023b610874565b60405161024891906124c7565b60405180910390f35b61026b60048036038101906102669190612465565b61087a565b005b61028760048036038101906102829190612370565b61089a565b60405161029794939291906124e2565b60405180910390f35b6102a8610962565b6040516102b591906122ab565b60405180910390f35b6102d860048036038101906102d39190612370565b610968565b6040516102e591906123de565b60405180910390f35b6103086004803603810190610303919061252e565b610a1a565b60405161031591906124c7565b60405180910390f35b61033860048036038101906103339190612587565b610ad2565b005b610342610b6e565b60405161034f919061234e565b60405180910390f35b610372600480360381019061036d91906125f3565b610c00565b005b61037c610c16565b60405161038991906123de565b60405180910390f35b6103ac60048036038101906103a791906126d4565b610c3c565b005b6103c860048036038101906103c39190612370565b610c9e565b6040516103d5919061234e565b60405180910390f35b6103f860048036038101906103f39190612757565b610df0565b604051610405919061209f565b60405180910390f35b60007f80ac58cd000000000000000000000000000000000000000000000000000000007bffffffffffffffffffffffffffffffffffffffffffffffffffffffff1916827bffffffffffffffffffffffffffffffffffffffffffffffffffffffff191614806104d957507f5b5e139f000000000000000000000000000000000000000000000000000000007bffffffffffffffffffffffffffffffffffffffffffffffffffffffff1916827bffffffffffffffffffffffffffffffffffffffffffffffffffffffff1916145b806104e957506104e882610e84565b5b9050919050565b600080610501600854600a54610eee565b905082600d6000838152602001908152602001600020908051906020019061052a929190611f48565b5033600e600083815260200190815260200160002060006101000a81548173ffffffffffffffffffffffffffffffffffffffff021916908373ffffffffffffffffffffffffffffffffffffffff1602179055508091505092915050565b606060008054610596906127c6565b80601f01602080910402602001604051908101604052809291908181526020018280546105c2906127c6565b801561060f5780601f106105e45761010080835404028352916020019161060f565b820191906000526020600020905b8154815290600101906020018083116105f257829003601f168201915b5050505050905090565b600061062482611041565b610663576040517f08c379a000000000000000000000000000000000000000000000000000000000815260040161065a9061286a565b60405180910390fd5b6004600083815260200190815260200160002060009054906101000a900473ffffffffffffffffffffffffffffffffffffffff169050919050565b60006106a982610968565b90508073ffffffffffffffffffffffffffffffffffffffff168373ffffffffffffffffffffffffffffffffffffffff16141561071a576040517f08c379a0000000000000000000000000000000000000000000000000000000008152600401610711906128fc565b60405180910390fd5b8073ffffffffffffffffffffffffffffffffffffffff166107396110ad565b73ffffffffffffffffffffffffffffffffffffffff1614806107685750610767816107626110ad565b610df0565b5b6107a7576040517f08c379a000000000000000000000000000000000000000000000000000000000815260040161079e9061298e565b60405180910390fd5b6107b183836110b5565b505050565b6107c76107c16110ad565b8361116e565b610806576040517f08c379a00000000000000000000000000000000000000000000000000000000081526004016107fd90612a20565b60405180910390fd5b610810828261124c565b5050565b61082561081f6110ad565b8261116e565b610864576040517f08c379a000000000000000000000000000000000000000000000000000000000815260040161085b90612ab2565b60405180910390fd5b61086f8383836112c0565b505050565b600b5481565b61089583838360405180602001604052806000815250610c3c565b505050565b600c81815481106108aa57600080fd5b90600052602060002090600402016000915090508060000154908060010154908060020154908060030180546108df906127c6565b80601f016020809104026020016040519081016040528092919081815260200182805461090b906127c6565b80156109585780601f1061092d57610100808354040283529160200191610958565b820191906000526020600020905b81548152906001019060200180831161093b57829003601f168201915b5050505050905084565b60085481565b6000806002600084815260200190815260200160002060009054906101000a900473ffffffffffffffffffffffffffffffffffffffff169050600073ffffffffffffffffffffffffffffffffffffffff168173ffffffffffffffffffffffffffffffffffffffff161415610a11576040517f08c379a0000000000000000000000000000000000000000000000000000000008152600401610a0890612b44565b60405180910390fd5b80915050919050565b60008073ffffffffffffffffffffffffffffffffffffffff168273ffffffffffffffffffffffffffffffffffffffff161415610a8b576040517f08c379a0000000000000000000000000000000000000000000000000000000008152600401610a8290612bd6565b60405180910390fd5b600360008373ffffffffffffffffffffffffffffffffffffffff1673ffffffffffffffffffffffffffffffffffffffff168152602001908152602001600020549050919050565b7f000000000000000000000000000000000000000000000000000000000000000073ffffffffffffffffffffffffffffffffffffffff163373ffffffffffffffffffffffffffffffffffffffff1614610b60576040517f08c379a0000000000000000000000000000000000000000000000000000000008152600401610b5790612c42565b60405180910390fd5b610b6a8282611527565b5050565b606060018054610b7d906127c6565b80601f0160208091040260200160405190810160405280929190818152602001828054610ba9906127c6565b8015610bf65780601f10610bcb57610100808354040283529160200191610bf6565b820191906000526020600020905b815481529060010190602001808311610bd957829003601f168201915b5050505050905090565b610c12610c0b6110ad565b83836116e9565b5050565b600960009054906101000a900473ffffffffffffffffffffffffffffffffffffffff1681565b610c4d610c476110ad565b8361116e565b610c8c576040517f08c379a0000000000000000000000000000000000000000000000000000000008152600401610c8390612ab2565b60405180910390fd5b610c9884848484611856565b50505050565b6060610ca982611041565b610ce8576040517f08c379a0000000000000000000000000000000000000000000000000000000008152600401610cdf90612cd4565b60405180910390fd5b6000600660008481526020019081526020016000208054610d08906127c6565b80601f0160208091040260200160405190810160405280929190818152602001828054610d34906127c6565b8015610d815780601f10610d5657610100808354040283529160200191610d81565b820191906000526020600020905b815481529060010190602001808311610d6457829003601f168201915b505050505090506000610d926118b2565b9050600081511415610da8578192505050610deb565b600082511115610ddd578082604051602001610dc5929190612d30565b60405160208183030381529060405292505050610deb565b610de6846118c9565b925050505b919050565b6000600560008473ffffffffffffffffffffffffffffffffffffffff1673ffffffffffffffffffffffffffffffffffffffff16815260200190815260200160002060008373ffffffffffffffffffffffffffffffffffffffff1673ffffffffffffffffffffffffffffffffffffffff16815260200190815260200160002060009054906101000a900460ff16905092915050565b60007f01ffc9a7000000000000000000000000000000000000000000000000000000007bffffffffffffffffffffffffffffffffffffffffffffffffffffffff1916827bffffffffffffffffffffffffffffffffffffffffffffffffffffffff1916149050919050565b60007f000000000000000000000000000000000000000000000000000000000000000073ffffffffffffffffffffffffffffffffffffffff16634000aea07f000000000000000000000000000000000000000000000000000000000000000084866000604051602001610f62929190612d54565b6040516020818303038152906040526040518463ffffffff1660e01b8152600401610f8f93929190612dd2565b6020604051808303816000875af1158015610fae573d6000803e3d6000fd5b505050506040513d601f19601f82011682018060405250810190610fd29190612e25565b506000610ff5846000306007600089815260200190815260200160002054611970565b9050600160076000868152602001908152602001600020546110179190612e81565b600760008681526020019081526020016000208190555061103884826119ac565b91505092915050565b60008073ffffffffffffffffffffffffffffffffffffffff166002600084815260200190815260200160002060009054906101000a900473ffffffffffffffffffffffffffffffffffffffff1673ffffffffffffffffffffffffffffffffffffffff1614159050919050565b600033905090565b816004600083815260200190815260200160002060006101000a81548173ffffffffffffffffffffffffffffffffffffffff021916908373ffffffffffffffffffffffffffffffffffffffff160217905550808273ffffffffffffffffffffffffffffffffffffffff1661112883610968565b73ffffffffffffffffffffffffffffffffffffffff167f8c5be1e5ebec7d5bd14f71427d1e84f3dd0314c0f7b2291e5b200ac8c7c3b92560405160405180910390a45050565b600061117982611041565b6111b8576040517f08c379a00000000000000000000000000000000000000000000000000000000081526004016111af90612f49565b60405180910390fd5b60006111c383610968565b90508073ffffffffffffffffffffffffffffffffffffffff168473ffffffffffffffffffffffffffffffffffffffff16148061123257508373ffffffffffffffffffffffffffffffffffffffff1661121a84610619565b73ffffffffffffffffffffffffffffffffffffffff16145b8061124357506112428185610df0565b5b91505092915050565b61125582611041565b611294576040517f08c379a000000000000000000000000000000000000000000000000000000000815260040161128b90612fdb565b60405180910390fd5b806006600084815260200190815260200160002090805190602001906112bb929190611f48565b505050565b8273ffffffffffffffffffffffffffffffffffffffff166112e082610968565b73ffffffffffffffffffffffffffffffffffffffff1614611336576040517f08c379a000000000000000000000000000000000000000000000000000000000815260040161132d9061306d565b60405180910390fd5b600073ffffffffffffffffffffffffffffffffffffffff168273ffffffffffffffffffffffffffffffffffffffff1614156113a6576040517f08c379a000000000000000000000000000000000000000000000000000000000815260040161139d906130ff565b60405180910390fd5b6113b18383836119df565b6113bc6000826110b5565b6001600360008573ffffffffffffffffffffffffffffffffffffffff1673ffffffffffffffffffffffffffffffffffffffff168152602001908152602001600020600082825461140c919061311f565b925050819055506001600360008473ffffffffffffffffffffffffffffffffffffffff1673ffffffffffffffffffffffffffffffffffffffff16815260200190815260200160002060008282546114639190612e81565b92505081905550816002600083815260200190815260200160002060006101000a81548173ffffffffffffffffffffffffffffffffffffffff021916908373ffffffffffffffffffffffffffffffffffffffff160217905550808273ffffffffffffffffffffffffffffffffffffffff168473ffffffffffffffffffffffffffffffffffffffff167fddf252ad1be2c89b69c2b068fc378daa952ba7f163c4a11628f55a4df523b3ef60405160405180910390a46115228383836119e4565b505050565b6000600c80549050905060006064836115409190613182565b905060006064612710856115549190613182565b61155e91906131b3565b90506000612710620f4240866115749190613182565b61157e91906131b3565b9050600c6040518060800160405280858152602001848152602001838152602001600d60008a815260200190815260200160002080546115bd906127c6565b80601f01602080910402602001604051908101604052809291908181526020018280546115e9906127c6565b80156116365780601f1061160b57610100808354040283529160200191611636565b820191906000526020600020905b81548152906001019060200180831161161957829003601f168201915b5050505050815250908060018154018082558091505060019003906000526020600020906004020160009091909190915060008201518160000155602082015181600101556040820151816002015560608201518160030190805190602001906116a1929190611f48565b5050506116e1600e600088815260200190815260200160002060009054906101000a900473ffffffffffffffffffffffffffffffffffffffff16856119e9565b505050505050565b8173ffffffffffffffffffffffffffffffffffffffff168373ffffffffffffffffffffffffffffffffffffffff161415611758576040517f08c379a000000000000000000000000000000000000000000000000000000000815260040161174f90613230565b60405180910390fd5b80600560008573ffffffffffffffffffffffffffffffffffffffff1673ffffffffffffffffffffffffffffffffffffffff16815260200190815260200160002060008473ffffffffffffffffffffffffffffffffffffffff1673ffffffffffffffffffffffffffffffffffffffff16815260200190815260200160002060006101000a81548160ff0219169083151502179055508173ffffffffffffffffffffffffffffffffffffffff168373ffffffffffffffffffffffffffffffffffffffff167f17307eab39ab6107e8899845ad3d59bd9653f200f220920489ca2b5937696c3183604051611849919061209f565b60405180910390a3505050565b6118618484846112c0565b61186d84848484611a07565b6118ac576040517f08c379a00000000000000000000000000000000000000000000000000000000081526004016118a3906132c2565b60405180910390fd5b50505050565b606060405180602001604052806000815250905090565b60606118d482611041565b611913576040517f08c379a000000000000000000000000000000000000000000000000000000000815260040161190a90613354565b60405180910390fd5b600061191d6118b2565b9050600081511161193d5760405180602001604052806000815250611968565b8061194784611b8f565b604051602001611958929190612d30565b6040516020818303038152906040525b915050919050565b6000848484846040516020016119899493929190613374565b6040516020818303038152906040528051906020012060001c9050949350505050565b600082826040516020016119c19291906133fb565b60405160208183030381529060405280519060200120905092915050565b505050565b505050565b611a03828260405180602001604052806000815250611cf0565b5050565b6000611a288473ffffffffffffffffffffffffffffffffffffffff16611d4b565b15611b82578373ffffffffffffffffffffffffffffffffffffffff1663150b7a02611a516110ad565b8786866040518563ffffffff1660e01b8152600401611a739493929190613427565b6020604051808303816000875af1925050508015611aaf57506040513d601f19601f82011682018060405250810190611aac9190613488565b60015b611b32573d8060008114611adf576040519150601f19603f3d011682016040523d82523d6000602084013e611ae4565b606091505b50600081511415611b2a576040517f08c379a0000000000000000000000000000000000000000000000000000000008152600401611b21906132c2565b60405180910390fd5b805181602001fd5b63150b7a0260e01b7bffffffffffffffffffffffffffffffffffffffffffffffffffffffff1916817bffffffffffffffffffffffffffffffffffffffffffffffffffffffff191614915050611b87565b600190505b949350505050565b60606000821415611bd7576040518060400160405280600181526020017f30000000000000000000000000000000000000000000000000000000000000008152509050611ceb565b600082905060005b60008214611c09578080611bf2906134b5565b915050600a82611c0291906131b3565b9150611bdf565b60008167ffffffffffffffff811115611c2557611c2461210b565b5b6040519080825280601f01601f191660200182016040528015611c575781602001600182028036833780820191505090505b5090505b60008514611ce457600182611c70919061311f565b9150600a85611c7f9190613182565b6030611c8b9190612e81565b60f81b818381518110611ca157611ca06134fe565b5b60200101907effffffffffffffffffffffffffffffffffffffffffffffffffffffffffffff1916908160001a905350600a85611cdd91906131b3565b9450611c5b565b8093505050505b919050565b611cfa8383611d6e565b611d076000848484611a07565b611d46576040517f08c379a0000000000000000000000000000000000000000000000000000000008152600401611d3d906132c2565b60405180910390fd5b505050565b6000808273ffffffffffffffffffffffffffffffffffffffff163b119050919050565b600073ffffffffffffffffffffffffffffffffffffffff168273ffffffffffffffffffffffffffffffffffffffff161415611dde576040517f08c379a0000000000000000000000000000000000000000000000000000000008152600401611dd590613579565b60405180910390fd5b611de781611041565b15611e27576040517f08c379a0000000000000000000000000000000000000000000000000000000008152600401611e1e906135e5565b60405180910390fd5b611e33600083836119df565b6001600360008473ffffffffffffffffffffffffffffffffffffffff1673ffffffffffffffffffffffffffffffffffffffff1681526020019081526020016000206000828254611e839190612e81565b92505081905550816002600083815260200190815260200160002060006101000a81548173ffffffffffffffffffffffffffffffffffffffff021916908373ffffffffffffffffffffffffffffffffffffffff160217905550808273ffffffffffffffffffffffffffffffffffffffff16600073ffffffffffffffffffffffffffffffffffffffff167fddf252ad1be2c89b69c2b068fc378daa952ba7f163c4a11628f55a4df523b3ef60405160405180910390a4611f44600083836119e4565b5050565b828054611f54906127c6565b90600052602060002090601f016020900481019282611f765760008555611fbd565b82601f10611f8f57805160ff1916838001178555611fbd565b82800160010185558215611fbd579182015b82811115611fbc578251825591602001919060010190611fa1565b5b509050611fca9190611fce565b5090565b5b80821115611fe7576000816000905550600101611fcf565b5090565b6000604051905090565b600080fd5b600080fd5b60007fffffffff0000000000000000000000000000000000000000000000000000000082169050919050565b61203481611fff565b811461203f57600080fd5b50565b6000813590506120518161202b565b92915050565b60006020828403121561206d5761206c611ff5565b5b600061207b84828501612042565b91505092915050565b60008115159050919050565b61209981612084565b82525050565b60006020820190506120b46000830184612090565b92915050565b6000819050919050565b6120cd816120ba565b81146120d857600080fd5b50565b6000813590506120ea816120c4565b92915050565b600080fd5b600080fd5b6000601f19601f8301169050919050565b7f4e487b7100000000000000000000000000000000000000000000000000000000600052604160045260246000fd5b612143826120fa565b810181811067ffffffffffffffff821117156121625761216161210b565b5b80604052505050565b6000612175611feb565b9050612181828261213a565b919050565b600067ffffffffffffffff8211156121a1576121a061210b565b5b6121aa826120fa565b9050602081019050919050565b82818337600083830152505050565b60006121d96121d484612186565b61216b565b9050828152602081018484840111156121f5576121f46120f5565b5b6122008482856121b7565b509392505050565b600082601f83011261221d5761221c6120f0565b5b813561222d8482602086016121c6565b91505092915050565b6000806040838503121561224d5761224c611ff5565b5b600061225b858286016120db565b925050602083013567ffffffffffffffff81111561227c5761227b611ffa565b5b61228885828601612208565b9150509250929050565b6000819050919050565b6122a581612292565b82525050565b60006020820190506122c0600083018461229c565b92915050565b600081519050919050565b600082825260208201905092915050565b60005b838110156123005780820151818401526020810190506122e5565b8381111561230f576000848401525b50505050565b6000612320826122c6565b61232a81856122d1565b935061233a8185602086016122e2565b612343816120fa565b840191505092915050565b600060208201905081810360008301526123688184612315565b905092915050565b60006020828403121561238657612385611ff5565b5b6000612394848285016120db565b91505092915050565b600073ffffffffffffffffffffffffffffffffffffffff82169050919050565b60006123c88261239d565b9050919050565b6123d8816123bd565b82525050565b60006020820190506123f360008301846123cf565b92915050565b612402816123bd565b811461240d57600080fd5b50565b60008135905061241f816123f9565b92915050565b6000806040838503121561243c5761243b611ff5565b5b600061244a85828601612410565b925050602061245b858286016120db565b9150509250929050565b60008060006060848603121561247e5761247d611ff5565b5b600061248c86828701612410565b935050602061249d86828701612410565b92505060406124ae868287016120db565b9150509250925092565b6124c1816120ba565b82525050565b60006020820190506124dc60008301846124b8565b92915050565b60006080820190506124f760008301876124b8565b61250460208301866124b8565b61251160408301856124b8565b81810360608301526125238184612315565b905095945050505050565b60006020828403121561254457612543611ff5565b5b600061255284828501612410565b91505092915050565b61256481612292565b811461256f57600080fd5b50565b6000813590506125818161255b565b92915050565b6000806040838503121561259e5761259d611ff5565b5b60006125ac85828601612572565b92505060206125bd858286016120db565b9150509250929050565b6125d081612084565b81146125db57600080fd5b50565b6000813590506125ed816125c7565b92915050565b6000806040838503121561260a57612609611ff5565b5b600061261885828601612410565b9250506020612629858286016125de565b9150509250929050565b600067ffffffffffffffff82111561264e5761264d61210b565b5b612657826120fa565b9050602081019050919050565b600061267761267284612633565b61216b565b905082815260208101848484011115612693576126926120f5565b5b61269e8482856121b7565b509392505050565b600082601f8301126126bb576126ba6120f0565b5b81356126cb848260208601612664565b91505092915050565b600080600080608085870312156126ee576126ed611ff5565b5b60006126fc87828801612410565b945050602061270d87828801612410565b935050604061271e878288016120db565b925050606085013567ffffffffffffffff81111561273f5761273e611ffa565b5b61274b878288016126a6565b91505092959194509250565b6000806040838503121561276e5761276d611ff5565b5b600061277c85828601612410565b925050602061278d85828601612410565b9150509250929050565b7f4e487b7100000000000000000000000000000000000000000000000000000000600052602260045260246000fd5b600060028204905060018216806127de57607f821691505b602082108114156127f2576127f1612797565b5b50919050565b7f4552433732313a20617070726f76656420717565727920666f72206e6f6e657860008201527f697374656e7420746f6b656e0000000000000000000000000000000000000000602082015250565b6000612854602c836122d1565b915061285f826127f8565b604082019050919050565b6000602082019050818103600083015261288381612847565b9050919050565b7f4552433732313a20617070726f76616c20746f2063757272656e74206f776e6560008201527f7200000000000000000000000000000000000000000000000000000000000000602082015250565b60006128e66021836122d1565b91506128f18261288a565b604082019050919050565b60006020820190508181036000830152612915816128d9565b9050919050565b7f4552433732313a20617070726f76652063616c6c6572206973206e6f74206f7760008201527f6e6572206e6f7220617070726f76656420666f7220616c6c0000000000000000602082015250565b60006129786038836122d1565b91506129838261291c565b604082019050919050565b600060208201905081810360008301526129a78161296b565b9050919050565b7f4552433732313a205452414e534645522043414c4c4552204953204e4f54204f60008201527f574e4552204e4f5420415050524f564544000000000000000000000000000000602082015250565b6000612a0a6031836122d1565b9150612a15826129ae565b604082019050919050565b60006020820190508181036000830152612a39816129fd565b9050919050565b7f4552433732313a207472616e736665722063616c6c6572206973206e6f74206f60008201527f776e6572206e6f7220617070726f766564000000000000000000000000000000602082015250565b6000612a9c6031836122d1565b9150612aa782612a40565b604082019050919050565b60006020820190508181036000830152612acb81612a8f565b9050919050565b7f4552433732313a206f776e657220717565727920666f72206e6f6e657869737460008201527f656e7420746f6b656e0000000000000000000000000000000000000000000000602082015250565b6000612b2e6029836122d1565b9150612b3982612ad2565b604082019050919050565b60006020820190508181036000830152612b5d81612b21565b9050919050565b7f4552433732313a2062616c616e636520717565727920666f7220746865207a6560008201527f726f206164647265737300000000000000000000000000000000000000000000602082015250565b6000612bc0602a836122d1565b9150612bcb82612b64565b604082019050919050565b60006020820190508181036000830152612bef81612bb3565b9050919050565b7f4f6e6c7920565246436f6f7264696e61746f722063616e2066756c66696c6c00600082015250565b6000612c2c601f836122d1565b9150612c3782612bf6565b602082019050919050565b60006020820190508181036000830152612c5b81612c1f565b9050919050565b7f45524337323155524953746f726167653a2055524920717565727920666f722060008201527f6e6f6e6578697374656e7420746f6b656e000000000000000000000000000000602082015250565b6000612cbe6031836122d1565b9150612cc982612c62565b604082019050919050565b60006020820190508181036000830152612ced81612cb1565b9050919050565b600081905092915050565b6000612d0a826122c6565b612d148185612cf4565b9350612d248185602086016122e2565b80840191505092915050565b6000612d3c8285612cff565b9150612d488284612cff565b91508190509392505050565b6000604082019050612d69600083018561229c565b612d7660208301846124b8565b9392505050565b600081519050919050565b600082825260208201905092915050565b6000612da482612d7d565b612dae8185612d88565b9350612dbe8185602086016122e2565b612dc7816120fa565b840191505092915050565b6000606082019050612de760008301866123cf565b612df460208301856124b8565b8181036040830152612e068184612d99565b9050949350505050565b600081519050612e1f816125c7565b92915050565b600060208284031215612e3b57612e3a611ff5565b5b6000612e4984828501612e10565b91505092915050565b7f4e487b7100000000000000000000000000000000000000000000000000000000600052601160045260246000fd5b6000612e8c826120ba565b9150612e97836120ba565b9250827fffffffffffffffffffffffffffffffffffffffffffffffffffffffffffffffff03821115612ecc57612ecb612e52565b5b828201905092915050565b7f4552433732313a206f70657261746f7220717565727920666f72206e6f6e657860008201527f697374656e7420746f6b656e0000000000000000000000000000000000000000602082015250565b6000612f33602c836122d1565b9150612f3e82612ed7565b604082019050919050565b60006020820190508181036000830152612f6281612f26565b9050919050565b7f45524337323155524953746f726167653a2055524920736574206f66206e6f6e60008201527f6578697374656e7420746f6b656e000000000000000000000000000000000000602082015250565b6000612fc5602e836122d1565b9150612fd082612f69565b604082019050919050565b60006020820190508181036000830152612ff481612fb8565b9050919050565b7f4552433732313a207472616e736665722066726f6d20696e636f72726563742060008201527f6f776e6572000000000000000000000000000000000000000000000000000000602082015250565b60006130576025836122d1565b915061306282612ffb565b604082019050919050565b600060208201905081810360008301526130868161304a565b9050919050565b7f4552433732313a207472616e7366657220746f20746865207a65726f2061646460008201527f7265737300000000000000000000000000000000000000000000000000000000602082015250565b60006130e96024836122d1565b91506130f48261308d565b604082019050919050565b60006020820190508181036000830152613118816130dc565b9050919050565b600061312a826120ba565b9150613135836120ba565b92508282101561314857613147612e52565b5b828203905092915050565b7f4e487b7100000000000000000000000000000000000000000000000000000000600052601260045260246000fd5b600061318d826120ba565b9150613198836120ba565b9250826131a8576131a7613153565b5b828206905092915050565b60006131be826120ba565b91506131c9836120ba565b9250826131d9576131d8613153565b5b828204905092915050565b7f4552433732313a20617070726f766520746f2063616c6c657200000000000000600082015250565b600061321a6019836122d1565b9150613225826131e4565b602082019050919050565b600060208201905081810360008301526132498161320d565b9050919050565b7f4552433732313a207472616e7366657220746f206e6f6e20455243373231526560008201527f63656976657220696d706c656d656e7465720000000000000000000000000000602082015250565b60006132ac6032836122d1565b91506132b782613250565b604082019050919050565b600060208201905081810360008301526132db8161329f565b9050919050565b7f4552433732314d657461646174613a2055524920717565727920666f72206e6f60008201527f6e6578697374656e7420746f6b656e0000000000000000000000000000000000602082015250565b600061333e602f836122d1565b9150613349826132e2565b604082019050919050565b6000602082019050818103600083015261336d81613331565b9050919050565b6000608082019050613389600083018761229c565b61339660208301866124b8565b6133a360408301856123cf565b6133b060608301846124b8565b95945050505050565b6000819050919050565b6133d46133cf82612292565b6133b9565b82525050565b6000819050919050565b6133f56133f0826120ba565b6133da565b82525050565b600061340782856133c3565b60208201915061341782846133e4565b6020820191508190509392505050565b600060808201905061343c60008301876123cf565b61344960208301866123cf565b61345660408301856124b8565b81810360608301526134688184612d99565b905095945050505050565b6000815190506134828161202b565b92915050565b60006020828403121561349e5761349d611ff5565b5b60006134ac84828501613473565b91505092915050565b60006134c0826120ba565b91507fffffffffffffffffffffffffffffffffffffffffffffffffffffffffffffffff8214156134f3576134f2612e52565b5b600182019050919050565b7f4e487b7100000000000000000000000000000000000000000000000000000000600052603260045260246000fd5b7f4552433732313a206d696e7420746f20746865207a65726f2061646472657373600082015250565b60006135636020836122d1565b915061356e8261352d565b602082019050919050565b6000602082019050818103600083015261359281613556565b9050919050565b7f4552433732313a20746f6b656e20616c7265616479206d696e74656400000000600082015250565b60006135cf601c836122d1565b91506135da82613599565b602082019050919050565b600060208201905081810360008301526135fe816135c2565b905091905056fea2646970667358221220d265df40b7d6d6bf41d8566c6e89970de2bd9919c09c28e2583d7d57010a6c6264736f6c634300080c0033",
  "immutableReferences": {
    "73": [
      {
        "length": 32,
        "start": 3826
      }
    ],
    "75": [
      {
        "length": 32,
        "start": 2772
      },
      {
        "length": 32,
        "start": 3886
      }
    ]
  },
  "source": "// SPDX-License-Identifier: MIT\npragma solidity ^0.8.0;\n \n//import \"@openzeppelin/contracts/token/ERC721/ERC721.sol\";\nimport \"@openzeppelin/contracts/token/ERC721/extensions/ERC721URIStorage.sol\";\nimport \"@chainlink/contracts/src/v0.8/VRFConsumerBase.sol\";\n \ncontract BloodzNFT is ERC721URIStorage, VRFConsumerBase {\n   \n   bytes32 public keyHash;\n   address public vrfCoordinator;\n   uint256 internal fee;\n   uint256 public randomResult;\n   \n   struct Character {\n      uint256 strengh;\n      uint256 speed;\n      uint256 stamina;\n      string name;\n   }\n\n   Character[] public characters;\n\n   mapping(bytes32 => string) requestToCharacterName;\n   mapping(bytes32 => address) requestToSender;\n   mapping(bytes32 => uint256) requestToTokenId;\n\n\n   constructor(bytes32 _keyHash, address _vrfCoordinatorAddress, address _linkTokenAddress) \n   ERC721(\"BloodzNZBS\", \"BLDZ\") \n   VRFConsumerBase(_vrfCoordinatorAddress, _linkTokenAddress)\n   {\n      vrfCoordinator = _vrfCoordinatorAddress;\n      keyHash = _keyHash;\n      fee = 0.1 * 10**18; //0.1 LINK\n   }\n\n   function requestNewRandomCharacter(uint256 userProviderSeed, string memory name) public returns(bytes32) {\n      bytes32 requestId = requestRandomness(keyHash, fee); //, userProviderSeed);\n      requestToCharacterName[requestId] = name;\n      requestToSender[requestId] = msg.sender;\n      return requestId;\n   }\n\n   function fulfillRandomness(bytes32 requestId, uint256 randomNumber) internal override {\n      uint256 newId = characters.length;\n      uint256 strengh = (randomNumber % 100);\n      uint256 speed = ((randomNumber % 10000) / 100);\n      uint256 stamina = ((randomNumber % 1000000) / 10000);\n\n      characters.push(\n         Character(\n            strengh,\n            speed,\n            stamina,\n            requestToCharacterName[requestId]\n         )\n      );\n      _safeMint(requestToSender[requestId], newId);\n   }\n\n   function setTokenURI(uint256 tokenId, string memory _tokenURI) public {\n      require(_isApprovedOrOwner(_msgSender(), tokenId), \"ERC721: TRANSFER CALLER IS NOT OWNER NOT APPROVED\");\n      _setTokenURI(tokenId, _tokenURI);\n   }\n}\n\n ",
  "sourcePath": "/Users/fernandomaximof/Documents/dynamic-erc721/contracts/BloodzNFT.sol",
  "compiler": {
    "name": "solc",
    "version": "0.8.12+commit.f00d7308.Emscripten.clang"
  },
  "schemaVersion": "3.4.3",
  "updatedAt": "2022-02-17T03:32:13.090Z",
  "devdoc": {
    "kind": "dev",
    "methods": {
      "approve(address,uint256)": {
        "details": "See {IERC721-approve}."
      },
      "balanceOf(address)": {
        "details": "See {IERC721-balanceOf}."
      },
      "getApproved(uint256)": {
        "details": "See {IERC721-getApproved}."
      },
      "isApprovedForAll(address,address)": {
        "details": "See {IERC721-isApprovedForAll}."
      },
      "name()": {
        "details": "See {IERC721Metadata-name}."
      },
      "ownerOf(uint256)": {
        "details": "See {IERC721-ownerOf}."
      },
      "safeTransferFrom(address,address,uint256)": {
        "details": "See {IERC721-safeTransferFrom}."
      },
      "safeTransferFrom(address,address,uint256,bytes)": {
        "details": "See {IERC721-safeTransferFrom}."
      },
      "setApprovalForAll(address,bool)": {
        "details": "See {IERC721-setApprovalForAll}."
      },
      "supportsInterface(bytes4)": {
        "details": "See {IERC165-supportsInterface}."
      },
      "symbol()": {
        "details": "See {IERC721Metadata-symbol}."
      },
      "tokenURI(uint256)": {
        "details": "See {IERC721Metadata-tokenURI}."
      },
      "transferFrom(address,address,uint256)": {
        "details": "See {IERC721-transferFrom}."
      }
    },
    "version": 1
  },
  "userdoc": {
    "kind": "user",
    "methods": {},
    "version": 1
  }
}