{
  "contractName": "BloodzNFT",
  "abi": [
    {
      "inputs": [
        {
          "internalType": "address",
          "name": "_VRFCoordinator",
          "type": "address"
        },
        {
          "internalType": "address",
          "name": "_LinkToken",
          "type": "address"
        },
        {
          "internalType": "bytes32",
          "name": "_keyhash",
          "type": "bytes32"
        }
      ],
      "stateMutability": "nonpayable",
      "type": "constructor"
    },
    {
      "anonymous": false,
      "inputs": [
        {
          "indexed": true,
          "internalType": "address",
          "name": "owner",
          "type": "address"
        },
        {
          "indexed": true,
          "internalType": "address",
          "name": "approved",
          "type": "address"
        },
        {
          "indexed": true,
          "internalType": "uint256",
          "name": "tokenId",
          "type": "uint256"
        }
      ],
      "name": "Approval",
      "type": "event"
    },
    {
      "anonymous": false,
      "inputs": [
        {
          "indexed": true,
          "internalType": "address",
          "name": "owner",
          "type": "address"
        },
        {
          "indexed": true,
          "internalType": "address",
          "name": "operator",
          "type": "address"
        },
        {
          "indexed": false,
          "internalType": "bool",
          "name": "approved",
          "type": "bool"
        }
      ],
      "name": "ApprovalForAll",
      "type": "event"
    },
    {
      "anonymous": false,
      "inputs": [
        {
          "indexed": true,
          "internalType": "address",
          "name": "previousOwner",
          "type": "address"
        },
        {
          "indexed": true,
          "internalType": "address",
          "name": "newOwner",
          "type": "address"
        }
      ],
      "name": "OwnershipTransferred",
      "type": "event"
    },
    {
      "anonymous": false,
      "inputs": [
        {
          "indexed": true,
          "internalType": "address",
          "name": "from",
          "type": "address"
        },
        {
          "indexed": true,
          "internalType": "address",
          "name": "to",
          "type": "address"
        },
        {
          "indexed": true,
          "internalType": "uint256",
          "name": "tokenId",
          "type": "uint256"
        }
      ],
      "name": "Transfer",
      "type": "event"
    },
    {
      "inputs": [],
      "name": "LinkToken",
      "outputs": [
        {
          "internalType": "address",
          "name": "",
          "type": "address"
        }
      ],
      "stateMutability": "view",
      "type": "function"
    },
    {
      "inputs": [],
      "name": "VRFCoordinator",
      "outputs": [
        {
          "internalType": "address",
          "name": "",
          "type": "address"
        }
      ],
      "stateMutability": "view",
      "type": "function"
    },
    {
      "inputs": [
        {
          "internalType": "address",
          "name": "to",
          "type": "address"
        },
        {
          "internalType": "uint256",
          "name": "tokenId",
          "type": "uint256"
        }
      ],
      "name": "approve",
      "outputs": [],
      "stateMutability": "nonpayable",
      "type": "function"
    },
    {
      "inputs": [
        {
          "internalType": "address",
          "name": "owner",
          "type": "address"
        }
      ],
      "name": "balanceOf",
      "outputs": [
        {
          "internalType": "uint256",
          "name": "",
          "type": "uint256"
        }
      ],
      "stateMutability": "view",
      "type": "function"
    },
    {
      "inputs": [],
      "name": "baseURI",
      "outputs": [
        {
          "internalType": "string",
          "name": "",
          "type": "string"
        }
      ],
      "stateMutability": "view",
      "type": "function"
    },
    {
      "inputs": [
        {
          "internalType": "uint256",
          "name": "",
          "type": "uint256"
        }
      ],
      "name": "characters",
      "outputs": [
        {
          "internalType": "uint256",
          "name": "strength",
          "type": "uint256"
        },
        {
          "internalType": "uint256",
          "name": "dexterity",
          "type": "uint256"
        },
        {
          "internalType": "uint256",
          "name": "constitution",
          "type": "uint256"
        },
        {
          "internalType": "uint256",
          "name": "intelligence",
          "type": "uint256"
        },
        {
          "internalType": "uint256",
          "name": "wisdom",
          "type": "uint256"
        },
        {
          "internalType": "uint256",
          "name": "charisma",
          "type": "uint256"
        },
        {
          "internalType": "uint256",
          "name": "experience",
          "type": "uint256"
        },
        {
          "internalType": "string",
          "name": "name",
          "type": "string"
        }
      ],
      "stateMutability": "view",
      "type": "function"
    },
    {
      "inputs": [
        {
          "internalType": "uint256",
          "name": "tokenId",
          "type": "uint256"
        }
      ],
      "name": "getApproved",
      "outputs": [
        {
          "internalType": "address",
          "name": "",
          "type": "address"
        }
      ],
      "stateMutability": "view",
      "type": "function"
    },
    {
      "inputs": [
        {
          "internalType": "address",
          "name": "owner",
          "type": "address"
        },
        {
          "internalType": "address",
          "name": "operator",
          "type": "address"
        }
      ],
      "name": "isApprovedForAll",
      "outputs": [
        {
          "internalType": "bool",
          "name": "",
          "type": "bool"
        }
      ],
      "stateMutability": "view",
      "type": "function"
    },
    {
      "inputs": [],
      "name": "name",
      "outputs": [
        {
          "internalType": "string",
          "name": "",
          "type": "string"
        }
      ],
      "stateMutability": "view",
      "type": "function"
    },
    {
      "inputs": [],
      "name": "owner",
      "outputs": [
        {
          "internalType": "address",
          "name": "",
          "type": "address"
        }
      ],
      "stateMutability": "view",
      "type": "function"
    },
    {
      "inputs": [
        {
          "internalType": "uint256",
          "name": "tokenId",
          "type": "uint256"
        }
      ],
      "name": "ownerOf",
      "outputs": [
        {
          "internalType": "address",
          "name": "",
          "type": "address"
        }
      ],
      "stateMutability": "view",
      "type": "function"
    },
    {
      "inputs": [],
      "name": "randomResult",
      "outputs": [
        {
          "internalType": "uint256",
          "name": "",
          "type": "uint256"
        }
      ],
      "stateMutability": "view",
      "type": "function"
    },
    {
      "inputs": [
        {
          "internalType": "bytes32",
          "name": "requestId",
          "type": "bytes32"
        },
        {
          "internalType": "uint256",
          "name": "randomness",
          "type": "uint256"
        }
      ],
      "name": "rawFulfillRandomness",
      "outputs": [],
      "stateMutability": "nonpayable",
      "type": "function"
    },
    {
      "inputs": [],
      "name": "renounceOwnership",
      "outputs": [],
      "stateMutability": "nonpayable",
      "type": "function"
    },
    {
      "inputs": [
        {
          "internalType": "address",
          "name": "from",
          "type": "address"
        },
        {
          "internalType": "address",
          "name": "to",
          "type": "address"
        },
        {
          "internalType": "uint256",
          "name": "tokenId",
          "type": "uint256"
        }
      ],
      "name": "safeTransferFrom",
      "outputs": [],
      "stateMutability": "nonpayable",
      "type": "function"
    },
    {
      "inputs": [
        {
          "internalType": "address",
          "name": "from",
          "type": "address"
        },
        {
          "internalType": "address",
          "name": "to",
          "type": "address"
        },
        {
          "internalType": "uint256",
          "name": "tokenId",
          "type": "uint256"
        },
        {
          "internalType": "bytes",
          "name": "_data",
          "type": "bytes"
        }
      ],
      "name": "safeTransferFrom",
      "outputs": [],
      "stateMutability": "nonpayable",
      "type": "function"
    },
    {
      "inputs": [
        {
          "internalType": "address",
          "name": "operator",
          "type": "address"
        },
        {
          "internalType": "bool",
          "name": "approved",
          "type": "bool"
        }
      ],
      "name": "setApprovalForAll",
      "outputs": [],
      "stateMutability": "nonpayable",
      "type": "function"
    },
    {
      "inputs": [
        {
          "internalType": "bytes4",
          "name": "interfaceId",
          "type": "bytes4"
        }
      ],
      "name": "supportsInterface",
      "outputs": [
        {
          "internalType": "bool",
          "name": "",
          "type": "bool"
        }
      ],
      "stateMutability": "view",
      "type": "function"
    },
    {
      "inputs": [],
      "name": "symbol",
      "outputs": [
        {
          "internalType": "string",
          "name": "",
          "type": "string"
        }
      ],
      "stateMutability": "view",
      "type": "function"
    },
    {
      "inputs": [
        {
          "internalType": "uint256",
          "name": "index",
          "type": "uint256"
        }
      ],
      "name": "tokenByIndex",
      "outputs": [
        {
          "internalType": "uint256",
          "name": "",
          "type": "uint256"
        }
      ],
      "stateMutability": "view",
      "type": "function"
    },
    {
      "inputs": [
        {
          "internalType": "address",
          "name": "owner",
          "type": "address"
        },
        {
          "internalType": "uint256",
          "name": "index",
          "type": "uint256"
        }
      ],
      "name": "tokenOfOwnerByIndex",
      "outputs": [
        {
          "internalType": "uint256",
          "name": "",
          "type": "uint256"
        }
      ],
      "stateMutability": "view",
      "type": "function"
    },
    {
      "inputs": [
        {
          "internalType": "uint256",
          "name": "tokenId",
          "type": "uint256"
        }
      ],
      "name": "tokenURI",
      "outputs": [
        {
          "internalType": "string",
          "name": "",
          "type": "string"
        }
      ],
      "stateMutability": "view",
      "type": "function"
    },
    {
      "inputs": [],
      "name": "totalSupply",
      "outputs": [
        {
          "internalType": "uint256",
          "name": "",
          "type": "uint256"
        }
      ],
      "stateMutability": "view",
      "type": "function"
    },
    {
      "inputs": [
        {
          "internalType": "address",
          "name": "from",
          "type": "address"
        },
        {
          "internalType": "address",
          "name": "to",
          "type": "address"
        },
        {
          "internalType": "uint256",
          "name": "tokenId",
          "type": "uint256"
        }
      ],
      "name": "transferFrom",
      "outputs": [],
      "stateMutability": "nonpayable",
      "type": "function"
    },
    {
      "inputs": [
        {
          "internalType": "address",
          "name": "newOwner",
          "type": "address"
        }
      ],
      "name": "transferOwnership",
      "outputs": [],
      "stateMutability": "nonpayable",
      "type": "function"
    },
    {
      "inputs": [
        {
          "internalType": "string",
          "name": "name",
          "type": "string"
        }
      ],
      "name": "requestNewRandomCharacter",
      "outputs": [
        {
          "internalType": "bytes32",
          "name": "",
          "type": "bytes32"
        }
      ],
      "stateMutability": "nonpayable",
      "type": "function"
    },
    {
      "inputs": [
        {
          "internalType": "uint256",
          "name": "tokenId",
          "type": "uint256"
        }
      ],
      "name": "getTokenURI",
      "outputs": [
        {
          "internalType": "string",
          "name": "",
          "type": "string"
        }
      ],
      "stateMutability": "view",
      "type": "function"
    },
    {
      "inputs": [
        {
          "internalType": "uint256",
          "name": "tokenId",
          "type": "uint256"
        },
        {
          "internalType": "string",
          "name": "_tokenURI",
          "type": "string"
        }
      ],
      "name": "setTokenURI",
      "outputs": [],
      "stateMutability": "nonpayable",
      "type": "function"
    },
    {
      "inputs": [
        {
          "internalType": "uint256",
          "name": "tokenId",
          "type": "uint256"
        }
      ],
      "name": "getLevel",
      "outputs": [
        {
          "internalType": "uint256",
          "name": "",
          "type": "uint256"
        }
      ],
      "stateMutability": "view",
      "type": "function"
    },
    {
      "inputs": [],
      "name": "getNumberOfCharacters",
      "outputs": [
        {
          "internalType": "uint256",
          "name": "",
          "type": "uint256"
        }
      ],
      "stateMutability": "view",
      "type": "function"
    },
    {
      "inputs": [
        {
          "internalType": "uint256",
          "name": "tokenId",
          "type": "uint256"
        }
      ],
      "name": "getCharacterOverView",
      "outputs": [
        {
          "internalType": "string",
          "name": "",
          "type": "string"
        },
        {
          "internalType": "uint256",
          "name": "",
          "type": "uint256"
        },
        {
          "internalType": "uint256",
          "name": "",
          "type": "uint256"
        },
        {
          "internalType": "uint256",
          "name": "",
          "type": "uint256"
        }
      ],
      "stateMutability": "view",
      "type": "function"
    },
    {
      "inputs": [
        {
          "internalType": "uint256",
          "name": "tokenId",
          "type": "uint256"
        }
      ],
      "name": "getCharacterStats",
      "outputs": [
        {
          "internalType": "uint256",
          "name": "",
          "type": "uint256"
        },
        {
          "internalType": "uint256",
          "name": "",
          "type": "uint256"
        },
        {
          "internalType": "uint256",
          "name": "",
          "type": "uint256"
        },
        {
          "internalType": "uint256",
          "name": "",
          "type": "uint256"
        },
        {
          "internalType": "uint256",
          "name": "",
          "type": "uint256"
        },
        {
          "internalType": "uint256",
          "name": "",
          "type": "uint256"
        },
        {
          "internalType": "uint256",
          "name": "",
          "type": "uint256"
        }
      ],
      "stateMutability": "view",
      "type": "function"
    }
  ],
  "bytecode": "0x60c06040523480156200001157600080fd5b50604051620047af380380620047af833981810160405260608110156200003757600080fd5b8101908080519060200190929190805190602001909291908051906020019092919050505082826040518060400160405280600a81526020017f426c6f6f647a4e5a4253000000000000000000000000000000000000000000008152506040518060400160405280600481526020017f424c445a00000000000000000000000000000000000000000000000000000000815250620000e26301ffc9a760e01b6200032060201b60201c565b8160069080519060200190620000fa92919062000431565b5080600790805190602001906200011392919062000431565b506200012c6380ac58cd60e01b6200032060201b60201c565b62000144635b5e139f60e01b6200032060201b60201c565b6200015c63780e9d6360e01b6200032060201b60201c565b50508173ffffffffffffffffffffffffffffffffffffffff1660a08173ffffffffffffffffffffffffffffffffffffffff1660601b815250508073ffffffffffffffffffffffffffffffffffffffff1660808173ffffffffffffffffffffffffffffffffffffffff1660601b8152505050506000620001e06200042960201b60201c565b905080600b60006101000a81548173ffffffffffffffffffffffffffffffffffffffff021916908373ffffffffffffffffffffffffffffffffffffffff1602179055508073ffffffffffffffffffffffffffffffffffffffff16600073ffffffffffffffffffffffffffffffffffffffff167f8be0079c531659141344cd1fd0a4f28419497f9722a3daafe3b4186f6b6457e060405160405180910390a35082600f60006101000a81548173ffffffffffffffffffffffffffffffffffffffff021916908373ffffffffffffffffffffffffffffffffffffffff16021790555081601060006101000a81548173ffffffffffffffffffffffffffffffffffffffff021916908373ffffffffffffffffffffffffffffffffffffffff16021790555080600c8190555067016345785d8a0000600d81905550505050620004d7565b63ffffffff60e01b817bffffffffffffffffffffffffffffffffffffffffffffffffffffffff19161415620003bd576040517f08c379a000000000000000000000000000000000000000000000000000000000815260040180806020018281038252601c8152602001807f4552433136353a20696e76616c696420696e746572666163652069640000000081525060200191505060405180910390fd5b6001600080837bffffffffffffffffffffffffffffffffffffffffffffffffffffffff19167bffffffffffffffffffffffffffffffffffffffffffffffffffffffff1916815260200190815260200160002060006101000a81548160ff02191690831515021790555050565b600033905090565b828054600181600116156101000203166002900490600052602060002090601f016020900481019282601f106200047457805160ff1916838001178555620004a5565b82800160010185558215620004a5579182015b82811115620004a457825182559160200191906001019062000487565b5b509050620004b49190620004b8565b5090565b5b80821115620004d3576000816000905550600101620004b9565b5090565b60805160601c60a05160601c6142a46200050b60003980611ce6528061288e52508061129a528061285252506142a46000f3fe608060405234801561001057600080fd5b50600436106101f05760003560e01c80634f95b5f01161010f5780638da5cb5b116100a2578063b88d4fde11610071578063b88d4fde14610cbc578063c87b56dd14610dc1578063e985e9c514610e68578063f2fde38b14610ee2576101f0565b80638da5cb5b14610b7d57806394985ddd14610bb157806395d89b4114610be9578063a22cb46514610c6c576101f0565b80636fe0c046116100de5780636fe0c04614610a6d57806370a0823114610ad9578063715018a614610b3157806386481d4014610b3b576101f0565b80634f95b5f0146108b857806362d36dec146109745780636352211e146109925780636c0360eb146109ea576101f0565b80632f745c591161018757806342842e0e1161015657806342842e0e146106fc5780634810bc591461076a5780634f6ccce7146108425780634f8e2fdf14610884576101f0565b80632f745c59146105a157806333b60863146106035780633bb3a24d1461063757806342619f66146106de576101f0565b8063162094c4116101c3578063162094c41461038157806318160ddd146104465780631a65e8ab1461046457806323b872dd14610533576101f0565b806301ffc9a7146101f557806306fdde0314610258578063081812fc146102db578063095ea7b314610333575b600080fd5b6102406004803603602081101561020b57600080fd5b8101908080357bffffffffffffffffffffffffffffffffffffffffffffffffffffffff19169060200190929190505050610f26565b60405180821515815260200191505060405180910390f35b610260610f8d565b6040518080602001828103825283818151815260200191508051906020019080838360005b838110156102a0578082015181840152602081019050610285565b50505050905090810190601f1680156102cd5780820380516001836020036101000a031916815260200191505b509250505060405180910390f35b610307600480360360208110156102f157600080fd5b810190808035906020019092919050505061102f565b604051808273ffffffffffffffffffffffffffffffffffffffff16815260200191505060405180910390f35b61037f6004803603604081101561034957600080fd5b81019080803573ffffffffffffffffffffffffffffffffffffffff169060200190929190803590602001909291905050506110ca565b005b6104446004803603604081101561039757600080fd5b8101908080359060200190929190803590602001906401000000008111156103be57600080fd5b8201836020820111156103d057600080fd5b803590602001918460018302840111640100000000831117156103f257600080fd5b91908080601f016020809104026020016040519081016040528093929190818152602001838380828437600081840152601f19601f82011690508083019250505050505050919291929050505061120e565b005b61044e611282565b6040518082815260200191505060405180910390f35b61051d6004803603602081101561047a57600080fd5b810190808035906020019064010000000081111561049757600080fd5b8201836020820111156104a957600080fd5b803590602001918460018302840111640100000000831117156104cb57600080fd5b91908080601f016020809104026020016040519081016040528093929190818152602001838380828437600081840152601f19601f820116905080830192505050505050509192919290505050611293565b6040518082815260200191505060405180910390f35b61059f6004803603606081101561054957600080fd5b81019080803573ffffffffffffffffffffffffffffffffffffffff169060200190929190803573ffffffffffffffffffffffffffffffffffffffff16906020019092919080359060200190929190505050611446565b005b6105ed600480360360408110156105b757600080fd5b81019080803573ffffffffffffffffffffffffffffffffffffffff169060200190929190803590602001909291905050506114bc565b6040518082815260200191505060405180910390f35b61060b611517565b604051808273ffffffffffffffffffffffffffffffffffffffff16815260200191505060405180910390f35b6106636004803603602081101561064d57600080fd5b810190808035906020019092919050505061153d565b6040518080602001828103825283818151815260200191508051906020019080838360005b838110156106a3578082015181840152602081019050610688565b50505050905090810190601f1680156106d05780820380516001836020036101000a031916815260200191505b509250505060405180910390f35b6106e661154f565b6040518082815260200191505060405180910390f35b6107686004803603606081101561071257600080fd5b81019080803573ffffffffffffffffffffffffffffffffffffffff169060200190929190803573ffffffffffffffffffffffffffffffffffffffff16906020019092919080359060200190929190505050611555565b005b6107966004803603602081101561078057600080fd5b8101908080359060200190929190505050611575565b6040518089815260200188815260200187815260200186815260200185815260200184815260200183815260200180602001828103825283818151815260200191508051906020019080838360005b838110156108005780820151818401526020810190506107e5565b50505050905090810190601f16801561082d5780820380516001836020036101000a031916815260200191505b50995050505050505050505060405180910390f35b61086e6004803603602081101561085857600080fd5b8101908080359060200190929190505050611662565b6040518082815260200191505060405180910390f35b61088c611685565b604051808273ffffffffffffffffffffffffffffffffffffffff16815260200191505060405180910390f35b6108e4600480360360208110156108ce57600080fd5b81019080803590602001909291905050506116ab565b6040518080602001858152602001848152602001838152602001828103825286818151815260200191508051906020019080838360005b8381101561093657808201518184015260208101905061091b565b50505050905090810190601f1680156109635780820380516001836020036101000a031916815260200191505b509550505050505060405180910390f35b61097c611862565b6040518082815260200191505060405180910390f35b6109be600480360360208110156109a857600080fd5b810190808035906020019092919050505061186f565b604051808273ffffffffffffffffffffffffffffffffffffffff16815260200191505060405180910390f35b6109f26118a6565b6040518080602001828103825283818151815260200191508051906020019080838360005b83811015610a32578082015181840152602081019050610a17565b50505050905090810190601f168015610a5f5780820380516001836020036101000a031916815260200191505b509250505060405180910390f35b610a9960048036036020811015610a8357600080fd5b8101908080359060200190929190505050611948565b6040518088815260200187815260200186815260200185815260200184815260200183815260200182815260200197505050505050505060405180910390f35b610b1b60048036036020811015610aef57600080fd5b81019080803573ffffffffffffffffffffffffffffffffffffffff169060200190929190505050611a45565b6040518082815260200191505060405180910390f35b610b39611b1a565b005b610b6760048036036020811015610b5157600080fd5b8101908080359060200190929190505050611c8a565b6040518082815260200191505060405180910390f35b610b85611cba565b604051808273ffffffffffffffffffffffffffffffffffffffff16815260200191505060405180910390f35b610be760048036036040811015610bc757600080fd5b810190808035906020019092919080359060200190929190505050611ce4565b005b610bf1611db3565b6040518080602001828103825283818151815260200191508051906020019080838360005b83811015610c31578082015181840152602081019050610c16565b50505050905090810190601f168015610c5e5780820380516001836020036101000a031916815260200191505b509250505060405180910390f35b610cba60048036036040811015610c8257600080fd5b81019080803573ffffffffffffffffffffffffffffffffffffffff169060200190929190803515159060200190929190505050611e55565b005b610dbf60048036036080811015610cd257600080fd5b81019080803573ffffffffffffffffffffffffffffffffffffffff169060200190929190803573ffffffffffffffffffffffffffffffffffffffff1690602001909291908035906020019092919080359060200190640100000000811115610d3957600080fd5b820183602082011115610d4b57600080fd5b80359060200191846001830284011164010000000083111715610d6d57600080fd5b91908080601f016020809104026020016040519081016040528093929190818152602001838380828437600081840152601f19601f82011690508083019250505050505050919291929050505061200b565b005b610ded60048036036020811015610dd757600080fd5b8101908080359060200190929190505050612083565b6040518080602001828103825283818151815260200191508051906020019080838360005b83811015610e2d578082015181840152602081019050610e12565b50505050905090810190601f168015610e5a5780820380516001836020036101000a031916815260200191505b509250505060405180910390f35b610eca60048036036040811015610e7e57600080fd5b81019080803573ffffffffffffffffffffffffffffffffffffffff169060200190929190803573ffffffffffffffffffffffffffffffffffffffff169060200190929190505050612354565b60405180821515815260200191505060405180910390f35b610f2460048036036020811015610ef857600080fd5b81019080803573ffffffffffffffffffffffffffffffffffffffff1690602001909291905050506123e8565b005b6000806000837bffffffffffffffffffffffffffffffffffffffffffffffffffffffff19167bffffffffffffffffffffffffffffffffffffffffffffffffffffffff1916815260200190815260200160002060009054906101000a900460ff169050919050565b606060068054600181600116156101000203166002900480601f0160208091040260200160405190810160405280929190818152602001828054600181600116156101000203166002900480156110255780601f10610ffa57610100808354040283529160200191611025565b820191906000526020600020905b81548152906001019060200180831161100857829003601f168201915b5050505050905090565b600061103a826125dd565b61108f576040517f08c379a000000000000000000000000000000000000000000000000000000000815260040180806020018281038252602c81526020018061416d602c913960400191505060405180910390fd5b6004600083815260200190815260200160002060009054906101000a900473ffffffffffffffffffffffffffffffffffffffff169050919050565b60006110d58261186f565b90508073ffffffffffffffffffffffffffffffffffffffff168373ffffffffffffffffffffffffffffffffffffffff16141561115c576040517f08c379a000000000000000000000000000000000000000000000000000000000815260040180806020018281038252602181526020018061421d6021913960400191505060405180910390fd5b8073ffffffffffffffffffffffffffffffffffffffff1661117b6125fa565b73ffffffffffffffffffffffffffffffffffffffff1614806111aa57506111a9816111a46125fa565b612354565b5b6111ff576040517f08c379a00000000000000000000000000000000000000000000000000000000081526004018080602001828103825260388152602001806140c06038913960400191505060405180910390fd5b6112098383612602565b505050565b61121f6112196125fa565b836126bb565b611274576040517f08c379a000000000000000000000000000000000000000000000000000000000815260040180806020018281038252603181526020018061423e6031913960400191505060405180910390fd5b61127e82826127af565b5050565b600061128e6002612839565b905090565b6000600d547f000000000000000000000000000000000000000000000000000000000000000073ffffffffffffffffffffffffffffffffffffffff166370a08231306040518263ffffffff1660e01b8152600401808273ffffffffffffffffffffffffffffffffffffffff16815260200191505060206040518083038186803b15801561131f57600080fd5b505afa158015611333573d6000803e3d6000fd5b505050506040513d602081101561134957600080fd5b810190808051906020019092919050505010156113b1576040517f08c379a000000000000000000000000000000000000000000000000000000000815260040180806020018281038252602b815260200180614043602b913960400191505060405180910390fd5b60006113c1600c54600d5461284e565b9050826012600083815260200190815260200160002090805190602001906113ea929190613f07565b50336013600083815260200190815260200160002060006101000a81548173ffffffffffffffffffffffffffffffffffffffff021916908373ffffffffffffffffffffffffffffffffffffffff16021790555080915050919050565b6114576114516125fa565b826126bb565b6114ac576040517f08c379a000000000000000000000000000000000000000000000000000000000815260040180806020018281038252603181526020018061423e6031913960400191505060405180910390fd5b6114b7838383612a47565b505050565b600061150f82600160008673ffffffffffffffffffffffffffffffffffffffff1673ffffffffffffffffffffffffffffffffffffffff168152602001908152602001600020612c8a90919063ffffffff16565b905092915050565b600f60009054906101000a900473ffffffffffffffffffffffffffffffffffffffff1681565b606061154882612083565b9050919050565b600e5481565b6115708383836040518060200160405280600081525061200b565b505050565b6011818154811061158257fe5b9060005260206000209060080201600091509050806000015490806001015490806002015490806003015490806004015490806005015490806006015490806007018054600181600116156101000203166002900480601f0160208091040260200160405190810160405280929190818152602001828054600181600116156101000203166002900480156116585780601f1061162d57610100808354040283529160200191611658565b820191906000526020600020905b81548152906001019060200180831161163b57829003601f168201915b5050505050905088565b600080611679836002612ca490919063ffffffff16565b50905080915050919050565b601060009054906101000a900473ffffffffffffffffffffffffffffffffffffffff1681565b60606000806000601185815481106116bf57fe5b9060005260206000209060080201600701601186815481106116dd57fe5b906000526020600020906008020160050154601187815481106116fc57fe5b9060005260206000209060080201600401546011888154811061171b57fe5b9060005260206000209060080201600301546011898154811061173a57fe5b90600052602060002090600802016002015460118a8154811061175957fe5b90600052602060002090600802016001015460118b8154811061177857fe5b906000526020600020906008020160000154010101010161179887611c8a565b601188815481106117a557fe5b906000526020600020906008020160060154838054600181600116156101000203166002900480601f01602080910402602001604051908101604052809291908181526020018280546001816001161561010002031660029004801561184c5780601f106118215761010080835404028352916020019161184c565b820191906000526020600020905b81548152906001019060200180831161182f57829003601f168201915b5050505050935093509350935093509193509193565b6000601180549050905090565b600061189f82604051806060016040528060298152602001614122602991396002612cd09092919063ffffffff16565b9050919050565b606060098054600181600116156101000203166002900480601f01602080910402602001604051908101604052809291908181526020018280546001816001161561010002031660029004801561193e5780601f106119135761010080835404028352916020019161193e565b820191906000526020600020905b81548152906001019060200180831161192157829003601f168201915b5050505050905090565b60008060008060008060006011888154811061196057fe5b9060005260206000209060080201600001546011898154811061197f57fe5b90600052602060002090600802016001015460118a8154811061199e57fe5b90600052602060002090600802016002015460118b815481106119bd57fe5b90600052602060002090600802016003015460118c815481106119dc57fe5b90600052602060002090600802016004015460118d815481106119fb57fe5b90600052602060002090600802016005015460118e81548110611a1a57fe5b9060005260206000209060080201600601549650965096509650965096509650919395979092949650565b60008073ffffffffffffffffffffffffffffffffffffffff168273ffffffffffffffffffffffffffffffffffffffff161415611acc576040517f08c379a000000000000000000000000000000000000000000000000000000000815260040180806020018281038252602a8152602001806140f8602a913960400191505060405180910390fd5b611b13600160008473ffffffffffffffffffffffffffffffffffffffff1673ffffffffffffffffffffffffffffffffffffffff168152602001908152602001600020612cef565b9050919050565b611b226125fa565b73ffffffffffffffffffffffffffffffffffffffff16611b40611cba565b73ffffffffffffffffffffffffffffffffffffffff1614611bc9576040517f08c379a00000000000000000000000000000000000000000000000000000000081526004018080602001828103825260208152602001807f4f776e61626c653a2063616c6c6572206973206e6f7420746865206f776e657281525060200191505060405180910390fd5b600073ffffffffffffffffffffffffffffffffffffffff16600b60009054906101000a900473ffffffffffffffffffffffffffffffffffffffff1673ffffffffffffffffffffffffffffffffffffffff167f8be0079c531659141344cd1fd0a4f28419497f9722a3daafe3b4186f6b6457e060405160405180910390a36000600b60006101000a81548173ffffffffffffffffffffffffffffffffffffffff021916908373ffffffffffffffffffffffffffffffffffffffff160217905550565b6000611cb360118381548110611c9c57fe5b906000526020600020906008020160060154612d04565b9050919050565b6000600b60009054906101000a900473ffffffffffffffffffffffffffffffffffffffff16905090565b7f000000000000000000000000000000000000000000000000000000000000000073ffffffffffffffffffffffffffffffffffffffff163373ffffffffffffffffffffffffffffffffffffffff1614611da5576040517f08c379a000000000000000000000000000000000000000000000000000000000815260040180806020018281038252601f8152602001807f4f6e6c7920565246436f6f7264696e61746f722063616e2066756c66696c6c0081525060200191505060405180910390fd5b611daf8282612d49565b5050565b606060078054600181600116156101000203166002900480601f016020809104026020016040519081016040528092919081815260200182805460018160011615610100020316600290048015611e4b5780601f10611e2057610100808354040283529160200191611e4b565b820191906000526020600020905b815481529060010190602001808311611e2e57829003601f168201915b5050505050905090565b611e5d6125fa565b73ffffffffffffffffffffffffffffffffffffffff168273ffffffffffffffffffffffffffffffffffffffff161415611efe576040517f08c379a00000000000000000000000000000000000000000000000000000000081526004018080602001828103825260198152602001807f4552433732313a20617070726f766520746f2063616c6c65720000000000000081525060200191505060405180910390fd5b8060056000611f0b6125fa565b73ffffffffffffffffffffffffffffffffffffffff1673ffffffffffffffffffffffffffffffffffffffff16815260200190815260200160002060008473ffffffffffffffffffffffffffffffffffffffff1673ffffffffffffffffffffffffffffffffffffffff16815260200190815260200160002060006101000a81548160ff0219169083151502179055508173ffffffffffffffffffffffffffffffffffffffff16611fb86125fa565b73ffffffffffffffffffffffffffffffffffffffff167f17307eab39ab6107e8899845ad3d59bd9653f200f220920489ca2b5937696c318360405180821515815260200191505060405180910390a35050565b61201c6120166125fa565b836126bb565b612071576040517f08c379a000000000000000000000000000000000000000000000000000000000815260040180806020018281038252603181526020018061423e6031913960400191505060405180910390fd5b61207d84848484612fb7565b50505050565b606061208e826125dd565b6120e3576040517f08c379a000000000000000000000000000000000000000000000000000000000815260040180806020018281038252602f8152602001806141ee602f913960400191505060405180910390fd5b6060600860008481526020019081526020016000208054600181600116156101000203166002900480601f01602080910402602001604051908101604052809291908181526020018280546001816001161561010002031660029004801561218c5780601f106121615761010080835404028352916020019161218c565b820191906000526020600020905b81548152906001019060200180831161216f57829003601f168201915b50505050509050606061219d6118a6565b90506000815114156121b357819250505061234f565b6000825111156122845780826040516020018083805190602001908083835b602083106121f557805182526020820191506020810190506020830392506121d2565b6001836020036101000a03801982511681845116808217855250505050505090500182805190602001908083835b602083106122465780518252602082019150602081019050602083039250612223565b6001836020036101000a038019825116818451168082178552505050505050905001925050506040516020818303038152906040529250505061234f565b8061228e85613029565b6040516020018083805190602001908083835b602083106122c457805182526020820191506020810190506020830392506122a1565b6001836020036101000a03801982511681845116808217855250505050505090500182805190602001908083835b6020831061231557805182526020820191506020810190506020830392506122f2565b6001836020036101000a03801982511681845116808217855250505050505090500192505050604051602081830303815290604052925050505b919050565b6000600560008473ffffffffffffffffffffffffffffffffffffffff1673ffffffffffffffffffffffffffffffffffffffff16815260200190815260200160002060008373ffffffffffffffffffffffffffffffffffffffff1673ffffffffffffffffffffffffffffffffffffffff16815260200190815260200160002060009054906101000a900460ff16905092915050565b6123f06125fa565b73ffffffffffffffffffffffffffffffffffffffff1661240e611cba565b73ffffffffffffffffffffffffffffffffffffffff1614612497576040517f08c379a00000000000000000000000000000000000000000000000000000000081526004018080602001828103825260208152602001807f4f776e61626c653a2063616c6c6572206973206e6f7420746865206f776e657281525060200191505060405180910390fd5b600073ffffffffffffffffffffffffffffffffffffffff168173ffffffffffffffffffffffffffffffffffffffff16141561251d576040517f08c379a0000000000000000000000000000000000000000000000000000000008152600401808060200182810382526026815260200180613ff96026913960400191505060405180910390fd5b8073ffffffffffffffffffffffffffffffffffffffff16600b60009054906101000a900473ffffffffffffffffffffffffffffffffffffffff1673ffffffffffffffffffffffffffffffffffffffff167f8be0079c531659141344cd1fd0a4f28419497f9722a3daafe3b4186f6b6457e060405160405180910390a380600b60006101000a81548173ffffffffffffffffffffffffffffffffffffffff021916908373ffffffffffffffffffffffffffffffffffffffff16021790555050565b60006125f382600261317090919063ffffffff16565b9050919050565b600033905090565b816004600083815260200190815260200160002060006101000a81548173ffffffffffffffffffffffffffffffffffffffff021916908373ffffffffffffffffffffffffffffffffffffffff160217905550808273ffffffffffffffffffffffffffffffffffffffff166126758361186f565b73ffffffffffffffffffffffffffffffffffffffff167f8c5be1e5ebec7d5bd14f71427d1e84f3dd0314c0f7b2291e5b200ac8c7c3b92560405160405180910390a45050565b60006126c6826125dd565b61271b576040517f08c379a000000000000000000000000000000000000000000000000000000000815260040180806020018281038252602c815260200180614094602c913960400191505060405180910390fd5b60006127268361186f565b90508073ffffffffffffffffffffffffffffffffffffffff168473ffffffffffffffffffffffffffffffffffffffff16148061279557508373ffffffffffffffffffffffffffffffffffffffff1661277d8461102f565b73ffffffffffffffffffffffffffffffffffffffff16145b806127a657506127a58185612354565b5b91505092915050565b6127b8826125dd565b61280d576040517f08c379a000000000000000000000000000000000000000000000000000000000815260040180806020018281038252602c815260200180614199602c913960400191505060405180910390fd5b80600860008481526020019081526020016000209080519060200190612834929190613f07565b505050565b60006128478260000161318a565b9050919050565b60007f000000000000000000000000000000000000000000000000000000000000000073ffffffffffffffffffffffffffffffffffffffff16634000aea07f00000000000000000000000000000000000000000000000000000000000000008486600060405160200180838152602001828152602001925050506040516020818303038152906040526040518463ffffffff1660e01b8152600401808473ffffffffffffffffffffffffffffffffffffffff16815260200183815260200180602001828103825283818151815260200191508051906020019080838360005b8381101561294857808201518184015260208101905061292d565b50505050905090810190601f1680156129755780820380516001836020036101000a031916815260200191505b50945050505050602060405180830381600087803b15801561299657600080fd5b505af11580156129aa573d6000803e3d6000fd5b505050506040513d60208110156129c057600080fd5b81019080805190602001909291905050505060006129f484600030600a60008981526020019081526020016000205461319b565b9050612a1d6001600a6000878152602001908152602001600020546131ff90919063ffffffff16565b600a600086815260200190815260200160002081905550612a3e8482613287565b91505092915050565b8273ffffffffffffffffffffffffffffffffffffffff16612a678261186f565b73ffffffffffffffffffffffffffffffffffffffff1614612ad3576040517f08c379a00000000000000000000000000000000000000000000000000000000081526004018080602001828103825260298152602001806141c56029913960400191505060405180910390fd5b600073ffffffffffffffffffffffffffffffffffffffff168273ffffffffffffffffffffffffffffffffffffffff161415612b59576040517f08c379a000000000000000000000000000000000000000000000000000000000815260040180806020018281038252602481526020018061401f6024913960400191505060405180910390fd5b612b648383836132c0565b612b6f600082612602565b612bc081600160008673ffffffffffffffffffffffffffffffffffffffff1673ffffffffffffffffffffffffffffffffffffffff1681526020019081526020016000206132c590919063ffffffff16565b50612c1281600160008573ffffffffffffffffffffffffffffffffffffffff1673ffffffffffffffffffffffffffffffffffffffff1681526020019081526020016000206132df90919063ffffffff16565b50612c29818360026132f99092919063ffffffff16565b50808273ffffffffffffffffffffffffffffffffffffffff168473ffffffffffffffffffffffffffffffffffffffff167fddf252ad1be2c89b69c2b068fc378daa952ba7f163c4a11628f55a4df523b3ef60405160405180910390a4505050565b6000612c99836000018361332e565b60001c905092915050565b600080600080612cb786600001866133b1565b915091508160001c8160001c9350935050509250929050565b6000612ce3846000018460001b8461344a565b60001c90509392505050565b6000612cfd82600001613540565b9050919050565b60008060026001840181612d1457fe5b0490508291505b81811015612d4357809150600281828581612d3257fe5b040181612d3b57fe5b049050612d1b565b50919050565b60006011805490509050600060648381612d5f57fe5b069050600060646127108581612d7157fe5b0681612d7957fe5b0490506000612710620f42408681612d8d57fe5b0681612d9557fe5b0490506000620f42406305f5e1008781612dab57fe5b0681612db357fe5b04905060006305f5e1006402540be4008881612dcb57fe5b0681612dd357fe5b04905060006402540be40064e8d4a510008981612dec57fe5b0681612df457fe5b04905060006011604051806101000160405280898152602001888152602001878152602001868152602001858152602001848152602001838152602001601260008e81526020019081526020016000208054600181600116156101000203166002900480601f016020809104026020016040519081016040528092919081815260200182805460018160011615610100020316600290048015612ed85780601f10612ead57610100808354040283529160200191612ed8565b820191906000526020600020905b815481529060010190602001808311612ebb57829003601f168201915b50505050508152509080600181540180825580915050600190039060005260206000209060080201600090919091909150600082015181600001556020820151816001015560408201518160020155606082015181600301556080820151816004015560a0820151816005015560c0820151816006015560e0820151816007019080519060200190612f6b929190613f07565b505050612fab601360008c815260200190815260200160002060009054906101000a900473ffffffffffffffffffffffffffffffffffffffff1689613551565b50505050505050505050565b612fc2848484612a47565b612fce8484848461356f565b613023576040517f08c379a0000000000000000000000000000000000000000000000000000000008152600401808060200182810382526032815260200180613fc76032913960400191505060405180910390fd5b50505050565b60606000821415613071576040518060400160405280600181526020017f3000000000000000000000000000000000000000000000000000000000000000815250905061316b565b600082905060005b6000821461309b578080600101915050600a828161309357fe5b049150613079565b60608167ffffffffffffffff811180156130b457600080fd5b506040519080825280601f01601f1916602001820160405280156130e75781602001600182028036833780820191505090505b50905060006001830390508593505b6000841461316357600a848161310857fe5b0660300160f81b8282806001900393508151811061312257fe5b60200101907effffffffffffffffffffffffffffffffffffffffffffffffffffffffffffff1916908160001a905350600a848161315b57fe5b0493506130f6565b819450505050505b919050565b6000613182836000018360001b613788565b905092915050565b600081600001805490509050919050565b600084848484604051602001808581526020018481526020018373ffffffffffffffffffffffffffffffffffffffff1681526020018281526020019450505050506040516020818303038152906040528051906020012060001c9050949350505050565b60008082840190508381101561327d576040517f08c379a000000000000000000000000000000000000000000000000000000000815260040180806020018281038252601b8152602001807f536166654d6174683a206164646974696f6e206f766572666c6f77000000000081525060200191505060405180910390fd5b8091505092915050565b60008282604051602001808381526020018281526020019250505060405160208183030381529060405280519060200120905092915050565b505050565b60006132d7836000018360001b6137ab565b905092915050565b60006132f1836000018360001b613893565b905092915050565b6000613325846000018460001b8473ffffffffffffffffffffffffffffffffffffffff1660001b613903565b90509392505050565b60008183600001805490501161338f576040517f08c379a0000000000000000000000000000000000000000000000000000000008152600401808060200182810382526022815260200180613fa56022913960400191505060405180910390fd5b82600001828154811061339e57fe5b9060005260206000200154905092915050565b60008082846000018054905011613413576040517f08c379a000000000000000000000000000000000000000000000000000000000815260040180806020018281038252602281526020018061414b6022913960400191505060405180910390fd5b600084600001848154811061342457fe5b906000526020600020906002020190508060000154816001015492509250509250929050565b60008084600101600085815260200190815260200160002054905060008114158390613511576040517f08c379a00000000000000000000000000000000000000000000000000000000081526004018080602001828103825283818151815260200191508051906020019080838360005b838110156134d65780820151818401526020810190506134bb565b50505050905090810190601f1680156135035780820380516001836020036101000a031916815260200191505b509250505060405180910390fd5b5084600001600182038154811061352457fe5b9060005260206000209060020201600101549150509392505050565b600081600001805490509050919050565b61356b8282604051806020016040528060008152506139df565b5050565b60006135908473ffffffffffffffffffffffffffffffffffffffff16613a50565b61359d5760019050613780565b606061370763150b7a0260e01b6135b26125fa565b888787604051602401808573ffffffffffffffffffffffffffffffffffffffff1681526020018473ffffffffffffffffffffffffffffffffffffffff16815260200183815260200180602001828103825283818151815260200191508051906020019080838360005b8381101561363657808201518184015260208101905061361b565b50505050905090810190601f1680156136635780820380516001836020036101000a031916815260200191505b5095505050505050604051602081830303815290604052907bffffffffffffffffffffffffffffffffffffffffffffffffffffffff19166020820180517bffffffffffffffffffffffffffffffffffffffffffffffffffffffff8381831617835250505050604051806060016040528060328152602001613fc7603291398773ffffffffffffffffffffffffffffffffffffffff16613a639092919063ffffffff16565b9050600081806020019051602081101561372057600080fd5b8101908080519060200190929190505050905063150b7a0260e01b7bffffffffffffffffffffffffffffffffffffffffffffffffffffffff1916817bffffffffffffffffffffffffffffffffffffffffffffffffffffffff191614925050505b949350505050565b600080836001016000848152602001908152602001600020541415905092915050565b6000808360010160008481526020019081526020016000205490506000811461388757600060018203905060006001866000018054905003905060008660000182815481106137f657fe5b906000526020600020015490508087600001848154811061381357fe5b906000526020600020018190555060018301876001016000838152602001908152602001600020819055508660000180548061384b57fe5b6001900381819060005260206000200160009055905586600101600087815260200190815260200160002060009055600194505050505061388d565b60009150505b92915050565b600061389f8383613a7b565b6138f85782600001829080600181540180825580915050600190039060005260206000200160009091909190915055826000018054905083600101600084815260200190815260200160002081905550600190506138fd565b600090505b92915050565b60008084600101600085815260200190815260200160002054905060008114156139aa578460000160405180604001604052808681526020018581525090806001815401808255809150506001900390600052602060002090600202016000909190919091506000820151816000015560208201518160010155505084600001805490508560010160008681526020019081526020016000208190555060019150506139d8565b828560000160018303815481106139bd57fe5b90600052602060002090600202016001018190555060009150505b9392505050565b6139e98383613a9e565b6139f6600084848461356f565b613a4b576040517f08c379a0000000000000000000000000000000000000000000000000000000008152600401808060200182810382526032815260200180613fc76032913960400191505060405180910390fd5b505050565b600080823b905060008111915050919050565b6060613a728484600085613c92565b90509392505050565b600080836001016000848152602001908152602001600020541415905092915050565b600073ffffffffffffffffffffffffffffffffffffffff168273ffffffffffffffffffffffffffffffffffffffff161415613b41576040517f08c379a00000000000000000000000000000000000000000000000000000000081526004018080602001828103825260208152602001807f4552433732313a206d696e7420746f20746865207a65726f206164647265737381525060200191505060405180910390fd5b613b4a816125dd565b15613bbd576040517f08c379a000000000000000000000000000000000000000000000000000000000815260040180806020018281038252601c8152602001807f4552433732313a20746f6b656e20616c7265616479206d696e7465640000000081525060200191505060405180910390fd5b613bc9600083836132c0565b613c1a81600160008573ffffffffffffffffffffffffffffffffffffffff1673ffffffffffffffffffffffffffffffffffffffff1681526020019081526020016000206132df90919063ffffffff16565b50613c31818360026132f99092919063ffffffff16565b50808273ffffffffffffffffffffffffffffffffffffffff16600073ffffffffffffffffffffffffffffffffffffffff167fddf252ad1be2c89b69c2b068fc378daa952ba7f163c4a11628f55a4df523b3ef60405160405180910390a45050565b606082471015613ced576040517f08c379a000000000000000000000000000000000000000000000000000000000815260040180806020018281038252602681526020018061406e6026913960400191505060405180910390fd5b613cf685613a50565b613d68576040517f08c379a000000000000000000000000000000000000000000000000000000000815260040180806020018281038252601d8152602001807f416464726573733a2063616c6c20746f206e6f6e2d636f6e747261637400000081525060200191505060405180910390fd5b600060608673ffffffffffffffffffffffffffffffffffffffff1685876040518082805190602001908083835b60208310613db85780518252602082019150602081019050602083039250613d95565b6001836020036101000a03801982511681845116808217855250505050505090500191505060006040518083038185875af1925050503d8060008114613e1a576040519150601f19603f3d011682016040523d82523d6000602084013e613e1f565b606091505b5091509150613e2f828286613e3b565b92505050949350505050565b60608315613e4b57829050613f00565b600083511115613e5e5782518084602001fd5b816040517f08c379a00000000000000000000000000000000000000000000000000000000081526004018080602001828103825283818151815260200191508051906020019080838360005b83811015613ec5578082015181840152602081019050613eaa565b50505050905090810190601f168015613ef25780820380516001836020036101000a031916815260200191505b509250505060405180910390fd5b9392505050565b828054600181600116156101000203166002900490600052602060002090601f016020900481019282601f10613f4857805160ff1916838001178555613f76565b82800160010185558215613f76579182015b82811115613f75578251825591602001919060010190613f5a565b5b509050613f839190613f87565b5090565b5b80821115613fa0576000816000905550600101613f88565b509056fe456e756d657261626c655365743a20696e646578206f7574206f6620626f756e64734552433732313a207472616e7366657220746f206e6f6e20455243373231526563656976657220696d706c656d656e7465724f776e61626c653a206e6577206f776e657220697320746865207a65726f20616464726573734552433732313a207472616e7366657220746f20746865207a65726f20616464726573734e6f7420656e6f756768204c494e4b202d2066696c6c20636f6e7472616374207769746820666175636574416464726573733a20696e73756666696369656e742062616c616e636520666f722063616c6c4552433732313a206f70657261746f7220717565727920666f72206e6f6e6578697374656e7420746f6b656e4552433732313a20617070726f76652063616c6c6572206973206e6f74206f776e6572206e6f7220617070726f76656420666f7220616c6c4552433732313a2062616c616e636520717565727920666f7220746865207a65726f20616464726573734552433732313a206f776e657220717565727920666f72206e6f6e6578697374656e7420746f6b656e456e756d657261626c654d61703a20696e646578206f7574206f6620626f756e64734552433732313a20617070726f76656420717565727920666f72206e6f6e6578697374656e7420746f6b656e4552433732314d657461646174613a2055524920736574206f66206e6f6e6578697374656e7420746f6b656e4552433732313a207472616e73666572206f6620746f6b656e2074686174206973206e6f74206f776e4552433732314d657461646174613a2055524920717565727920666f72206e6f6e6578697374656e7420746f6b656e4552433732313a20617070726f76616c20746f2063757272656e74206f776e65724552433732313a207472616e736665722063616c6c6572206973206e6f74206f776e6572206e6f7220617070726f766564a2646970667358221220c1351728d496c70bc6c6b2a6a58bd9633345f71be925d4aa79117ac88051e14964736f6c634300060c0033",
  "immutableReferences": {
    "77": [
      {
        "length": 32,
        "start": 4762
      },
      {
        "length": 32,
        "start": 10322
      }
    ],
    "79": [
      {
        "length": 32,
        "start": 7398
      },
      {
        "length": 32,
        "start": 10382
      }
    ]
  },
  "source": "// SPDX-License-Identifier: MIT\npragma solidity ^0.6.6;\n \n//import \"@openzeppelin/contracts/token/ERC721/ERC721.sol\";\nimport \"@openzeppelin/contracts/token/ERC721/ERC721.sol\";\nimport \"@chainlink/contracts/src/v0.6/VRFConsumerBase.sol\";\nimport \"@openzeppelin/contracts/access/Ownable.sol\";\nimport \"@openzeppelin/contracts/utils/Strings.sol\";\nimport \"@openzeppelin/contracts/math/SafeMath.sol\";\n \ncontract BloodzNFT is ERC721, VRFConsumerBase, Ownable {\n   using SafeMath for uint256;\n   using Strings for string;\n\n   bytes32 internal keyHash;\n   uint256 internal fee;\n   uint256 public randomResult;\n   address public VRFCoordinator;\n   // rinkeby: 0xb3dCcb4Cf7a26f6cf6B120Cf5A73875B7BBc655B\n   address public LinkToken;\n   // rinkeby: 0x01BE23585060835E02B77ef475b0Cc51aA1e0709a\n\n   struct Character {\n      uint256 strength;\n      uint256 dexterity;\n      uint256 constitution;\n      uint256 intelligence;\n      uint256 wisdom;\n      uint256 charisma;\n      uint256 experience;\n      string name;\n   }\n\n   Character[] public characters;\n\n   mapping(bytes32 => string) requestToCharacterName;\n   mapping(bytes32 => address) requestToSender;\n   mapping(bytes32 => uint256) requestToTokenId;\n\n   /**\n     * Constructor inherits VRFConsumerBase\n     *\n     * Network: Rinkeby\n     * Chainlink VRF Coordinator address: 0xb3dCcb4Cf7a26f6cf6B120Cf5A73875B7BBc655B\n     * LINK token address:                0x01BE23585060835E02B77ef475b0Cc51aA1e0709\n     * Key Hash: 0x2ed0feb3e7fd2022120aa84fab1945545a9f2ffc9076fd6156fa96eaff4c1311\n   */\n   constructor(address _VRFCoordinator, address _LinkToken, bytes32 _keyhash) public\n      VRFConsumerBase(_VRFCoordinator, _LinkToken)\n      ERC721(\"BloodzNZBS\", \"BLDZ\") \n   {   \n      VRFCoordinator = _VRFCoordinator;\n      LinkToken = _LinkToken;\n      keyHash = _keyhash;\n      fee = 0.1 * 10**18; // 0.1 LINK\n   }\n\n   function requestNewRandomCharacter(\n      string memory name\n   ) public returns (bytes32) {\n      require(\n         LINK.balanceOf(address(this)) >= fee,\n         \"Not enough LINK - fill contract with faucet\"\n      );\n      bytes32 requestId = requestRandomness(keyHash, fee);\n      requestToCharacterName[requestId] = name;\n      requestToSender[requestId] = msg.sender;\n      return requestId;\n   }\n\n   function getTokenURI(uint256 tokenId) public view returns (string memory) {\n      return tokenURI(tokenId);\n   }\n\n   function setTokenURI(uint256 tokenId, string memory _tokenURI) public {\n      require(\n         _isApprovedOrOwner(_msgSender(), tokenId),\n         \"ERC721: transfer caller is not owner nor approved\"\n      );\n      _setTokenURI(tokenId, _tokenURI);\n   }\n\n   function fulfillRandomness(bytes32 requestId, uint256 randomNumber)\n      internal\n      override\n   {\n      uint256 newId = characters.length;\n      uint256 strength = (randomNumber % 100);\n      uint256 dexterity = ((randomNumber % 10000) / 100 );\n      uint256 constitution = ((randomNumber % 1000000) / 10000 );\n      uint256 intelligence = ((randomNumber % 100000000) / 1000000 );\n      uint256 wisdom = ((randomNumber % 10000000000) / 100000000 );\n      uint256 charisma = ((randomNumber % 1000000000000) / 10000000000);\n      uint256 experience = 0;\n\n      characters.push(\n         Character(\n               strength,\n               dexterity,\n               constitution,\n               intelligence,\n               wisdom,\n               charisma,\n               experience,\n               requestToCharacterName[requestId]\n         )\n      );\n      _safeMint(requestToSender[requestId], newId);\n   }\n\n   function getLevel(uint256 tokenId) public view returns (uint256) {\n      return sqrt(characters[tokenId].experience);\n   }\n\n   function getNumberOfCharacters() public view returns (uint256) {\n      return characters.length; \n   }\n\n   function getCharacterOverView(uint256 tokenId)\n      public\n      view\n      returns (\n         string memory,\n         uint256,\n         uint256,\n         uint256\n      )\n   {\n      return (\n         characters[tokenId].name,\n         characters[tokenId].strength + characters[tokenId].dexterity + characters[tokenId].constitution + characters[tokenId].intelligence + characters[tokenId].wisdom + characters[tokenId].charisma,\n         getLevel(tokenId),\n         characters[tokenId].experience\n      );\n   }\n\n   function getCharacterStats(uint256 tokenId)\n      public\n      view\n      returns (\n         uint256,\n         uint256,\n         uint256,\n         uint256,\n         uint256,\n         uint256,\n         uint256\n      )\n   {\n      return (\n         characters[tokenId].strength,\n         characters[tokenId].dexterity,\n         characters[tokenId].constitution,\n         characters[tokenId].intelligence,\n         characters[tokenId].wisdom,\n         characters[tokenId].charisma,\n         characters[tokenId].experience\n      );\n   }\n\n   function sqrt(uint256 x) internal pure returns(uint256 y) {\n      uint256 z = (x + 1) / 2;\n      y = x;\n      while (z < y) {\n         y = z;\n         z = (x / z + z) / 2;\n      }\n   }\n}",
  "sourcePath": "/Users/fernandomaximof/Documents/dynamic-erc721/contracts/BloodzNFT.sol",
  "compiler": {
    "name": "solc",
    "version": "0.6.12+commit.27d51765.Emscripten.clang"
  },
  "schemaVersion": "3.4.3",
  "updatedAt": "2022-02-18T11:24:21.714Z",
  "networkType": "ethereum",
  "devdoc": {
    "kind": "dev",
    "methods": {
      "approve(address,uint256)": {
        "details": "See {IERC721-approve}."
      },
      "balanceOf(address)": {
        "details": "See {IERC721-balanceOf}."
      },
      "baseURI()": {
        "details": "Returns the base URI set via {_setBaseURI}. This will be automatically added as a prefix in {tokenURI} to each token's URI, or to the token ID if no specific URI is set for that token ID."
      },
      "getApproved(uint256)": {
        "details": "See {IERC721-getApproved}."
      },
      "isApprovedForAll(address,address)": {
        "details": "See {IERC721-isApprovedForAll}."
      },
      "name()": {
        "details": "See {IERC721Metadata-name}."
      },
      "owner()": {
        "details": "Returns the address of the current owner."
      },
      "ownerOf(uint256)": {
        "details": "See {IERC721-ownerOf}."
      },
      "renounceOwnership()": {
        "details": "Leaves the contract without owner. It will not be possible to call `onlyOwner` functions anymore. Can only be called by the current owner. NOTE: Renouncing ownership will leave the contract without an owner, thereby removing any functionality that is only available to the owner."
      },
      "safeTransferFrom(address,address,uint256)": {
        "details": "See {IERC721-safeTransferFrom}."
      },
      "safeTransferFrom(address,address,uint256,bytes)": {
        "details": "See {IERC721-safeTransferFrom}."
      },
      "setApprovalForAll(address,bool)": {
        "details": "See {IERC721-setApprovalForAll}."
      },
      "supportsInterface(bytes4)": {
        "details": "See {IERC165-supportsInterface}. Time complexity O(1), guaranteed to always use less than 30 000 gas."
      },
      "symbol()": {
        "details": "See {IERC721Metadata-symbol}."
      },
      "tokenByIndex(uint256)": {
        "details": "See {IERC721Enumerable-tokenByIndex}."
      },
      "tokenOfOwnerByIndex(address,uint256)": {
        "details": "See {IERC721Enumerable-tokenOfOwnerByIndex}."
      },
      "tokenURI(uint256)": {
        "details": "See {IERC721Metadata-tokenURI}."
      },
      "totalSupply()": {
        "details": "See {IERC721Enumerable-totalSupply}."
      },
      "transferFrom(address,address,uint256)": {
        "details": "See {IERC721-transferFrom}."
      },
      "transferOwnership(address)": {
        "details": "Transfers ownership of the contract to a new account (`newOwner`). Can only be called by the current owner."
      }
    },
    "version": 1
  },
  "userdoc": {
    "kind": "user",
    "methods": {
      "constructor": "Constructor inherits VRFConsumerBase Network: Rinkeby Chainlink VRF Coordinator address: 0xb3dCcb4Cf7a26f6cf6B120Cf5A73875B7BBc655B LINK token address:                0x01BE23585060835E02B77ef475b0Cc51aA1e0709 Key Hash: 0x2ed0feb3e7fd2022120aa84fab1945545a9f2ffc9076fd6156fa96eaff4c1311"
    },
    "version": 1
  }
}