{
  "contractName": "RandomNumberConsumer",
  "abi": [
    {
      "inputs": [
        {
          "internalType": "address",
          "name": "_linkTokenAddress",
          "type": "address"
        },
        {
          "internalType": "bytes32",
          "name": "_keyHash",
          "type": "bytes32"
        },
        {
          "internalType": "address",
          "name": "_vrfCoordinatorAddress",
          "type": "address"
        },
        {
          "internalType": "uint256",
          "name": "_fee",
          "type": "uint256"
        }
      ],
      "stateMutability": "nonpayable",
      "type": "constructor"
    },
    {
      "anonymous": false,
      "inputs": [
        {
          "indexed": false,
          "internalType": "bytes32",
          "name": "requestId",
          "type": "bytes32"
        }
      ],
      "name": "RequestedRandomness",
      "type": "event"
    },
    {
      "inputs": [],
      "name": "randomResult",
      "outputs": [
        {
          "internalType": "uint256",
          "name": "",
          "type": "uint256"
        }
      ],
      "stateMutability": "view",
      "type": "function"
    },
    {
      "inputs": [
        {
          "internalType": "bytes32",
          "name": "requestId",
          "type": "bytes32"
        },
        {
          "internalType": "uint256",
          "name": "randomness",
          "type": "uint256"
        }
      ],
      "name": "rawFulfillRandomness",
      "outputs": [],
      "stateMutability": "nonpayable",
      "type": "function"
    },
    {
      "inputs": [],
      "name": "getRandomNumber",
      "outputs": [
        {
          "internalType": "bytes32",
          "name": "requestId",
          "type": "bytes32"
        }
      ],
      "stateMutability": "nonpayable",
      "type": "function"
    },
    {
      "inputs": [],
      "name": "getChainlinkToken",
      "outputs": [
        {
          "internalType": "address",
          "name": "",
          "type": "address"
        }
      ],
      "stateMutability": "view",
      "type": "function"
    }
  ],
  "bytecode": "0x60c06040523480156200001157600080fd5b5060405162000a9738038062000a9783398181016040528101906200003791906200019b565b81848173ffffffffffffffffffffffffffffffffffffffff1660a08173ffffffffffffffffffffffffffffffffffffffff16815250508073ffffffffffffffffffffffffffffffffffffffff1660808173ffffffffffffffffffffffffffffffffffffffff168152505050508260018190555080600281905550505050506200020d565b600080fd5b600073ffffffffffffffffffffffffffffffffffffffff82169050919050565b6000620000ed82620000c0565b9050919050565b620000ff81620000e0565b81146200010b57600080fd5b50565b6000815190506200011f81620000f4565b92915050565b6000819050919050565b6200013a8162000125565b81146200014657600080fd5b50565b6000815190506200015a816200012f565b92915050565b6000819050919050565b620001758162000160565b81146200018157600080fd5b50565b60008151905062000195816200016a565b92915050565b60008060008060808587031215620001b857620001b7620000bb565b5b6000620001c8878288016200010e565b9450506020620001db8782880162000149565b9350506040620001ee878288016200010e565b9250506060620002018782880162000184565b91505092959194509250565b60805160a0516108586200023f6000396000818160f7015261022801526000818160cb01526101ec01526108586000f3fe608060405234801561001057600080fd5b506004361061004c5760003560e01c8063165d35e11461005157806342619f661461006f57806394985ddd1461008d578063dbdff2c1146100a9575b600080fd5b6100596100c7565b60405161006691906103e8565b60405180910390f35b6100776100ef565b604051610084919061041c565b60405180910390f35b6100a760048036038101906100a2919061049e565b6100f5565b005b6100b1610191565b6040516100be91906104ed565b60405180910390f35b60007f0000000000000000000000000000000000000000000000000000000000000000905090565b60035481565b7f000000000000000000000000000000000000000000000000000000000000000073ffffffffffffffffffffffffffffffffffffffff163373ffffffffffffffffffffffffffffffffffffffff1614610183576040517f08c379a000000000000000000000000000000000000000000000000000000000815260040161017a90610565565b60405180910390fd5b61018d82826101dd565b5050565b60006101a16001546002546101e8565b90507fe5f5b44d72d4143c278eb745c4acc0695c4a5bc616be5beecf46abe29661780e816040516101d291906104ed565b60405180910390a190565b806003819055505050565b60007f000000000000000000000000000000000000000000000000000000000000000073ffffffffffffffffffffffffffffffffffffffff16634000aea07f00000000000000000000000000000000000000000000000000000000000000008486600060405160200161025c929190610585565b6040516020818303038152906040526040518463ffffffff1660e01b815260040161028993929190610647565b6020604051808303816000875af11580156102a8573d6000803e3d6000fd5b505050506040513d601f19601f820116820180604052508101906102cc91906106bd565b5060006102ee8460003060008089815260200190815260200160002054610338565b905060016000808681526020019081526020016000205461030f9190610719565b6000808681526020019081526020016000208190555061032f8482610374565b91505092915050565b600084848484604051602001610351949392919061076f565b6040516020818303038152906040528051906020012060001c9050949350505050565b600082826040516020016103899291906107f6565b60405160208183030381529060405280519060200120905092915050565b600073ffffffffffffffffffffffffffffffffffffffff82169050919050565b60006103d2826103a7565b9050919050565b6103e2816103c7565b82525050565b60006020820190506103fd60008301846103d9565b92915050565b6000819050919050565b61041681610403565b82525050565b6000602082019050610431600083018461040d565b92915050565b600080fd5b6000819050919050565b61044f8161043c565b811461045a57600080fd5b50565b60008135905061046c81610446565b92915050565b61047b81610403565b811461048657600080fd5b50565b60008135905061049881610472565b92915050565b600080604083850312156104b5576104b4610437565b5b60006104c38582860161045d565b92505060206104d485828601610489565b9150509250929050565b6104e78161043c565b82525050565b600060208201905061050260008301846104de565b92915050565b600082825260208201905092915050565b7f4f6e6c7920565246436f6f7264696e61746f722063616e2066756c66696c6c00600082015250565b600061054f601f83610508565b915061055a82610519565b602082019050919050565b6000602082019050818103600083015261057e81610542565b9050919050565b600060408201905061059a60008301856104de565b6105a7602083018461040d565b9392505050565b600081519050919050565b600082825260208201905092915050565b60005b838110156105e85780820151818401526020810190506105cd565b838111156105f7576000848401525b50505050565b6000601f19601f8301169050919050565b6000610619826105ae565b61062381856105b9565b93506106338185602086016105ca565b61063c816105fd565b840191505092915050565b600060608201905061065c60008301866103d9565b610669602083018561040d565b818103604083015261067b818461060e565b9050949350505050565b60008115159050919050565b61069a81610685565b81146106a557600080fd5b50565b6000815190506106b781610691565b92915050565b6000602082840312156106d3576106d2610437565b5b60006106e1848285016106a8565b91505092915050565b7f4e487b7100000000000000000000000000000000000000000000000000000000600052601160045260246000fd5b600061072482610403565b915061072f83610403565b9250827fffffffffffffffffffffffffffffffffffffffffffffffffffffffffffffffff03821115610764576107636106ea565b5b828201905092915050565b600060808201905061078460008301876104de565b610791602083018661040d565b61079e60408301856103d9565b6107ab606083018461040d565b95945050505050565b6000819050919050565b6107cf6107ca8261043c565b6107b4565b82525050565b6000819050919050565b6107f06107eb82610403565b6107d5565b82525050565b600061080282856107be565b60208201915061081282846107df565b602082019150819050939250505056fea2646970667358221220a12360a95808572cef6941cea6fe8fb365dd337a5b5e0e84354491b0ba042ccd64736f6c634300080b0033",
  "immutableReferences": {
    "73": [
      {
        "length": 32,
        "start": 203
      },
      {
        "length": 32,
        "start": 492
      }
    ],
    "75": [
      {
        "length": 32,
        "start": 247
      },
      {
        "length": 32,
        "start": 552
      }
    ]
  },
  "source": "// SPDX-License-Identifier: MIT\npragma solidity ^0.8.0;\n\nimport \"@chainlink/contracts/src/v0.8/VRFConsumerBase.sol\";\n\ncontract RandomNumberConsumer is VRFConsumerBase {\n    \n    bytes32 internal keyHash;\n    uint256 internal fee;\n    uint256 public randomResult;\n    event RequestedRandomness(bytes32 requestId);\n    \n    /**\n     * Constructor inherits VRFConsumerBase\n     * \n     * Network: Kovan\n     * Chainlink VRF Coordinator address: 0xdD3782915140c8f3b190B5D67eAc6dc5760C46E9\n     * LINK token address:                0xa36085F69e2889c224210F603D836748e7dC0088\n     * Key Hash: 0x6c3699283bda56ad74f6b855546325b68d482e983852a7a82979cc4807b641f4\n     */\n    constructor(address _linkTokenAddress, bytes32 _keyHash, \n    address _vrfCoordinatorAddress, uint256 _fee)\n        VRFConsumerBase(\n            _vrfCoordinatorAddress, // VRF Coordinator\n            _linkTokenAddress  // LINK Token\n        )\n    {\n        keyHash = _keyHash;\n        fee = _fee;\n    }\n    \n    /** \n     * Requests randomness from a user-provided seed\n     */\n    function getRandomNumber() public returns (bytes32 requestId) {\n        requestId = requestRandomness(keyHash, fee);\n        emit RequestedRandomness(requestId);\n    }\n\n    /** \n     * Requests the address of the Chainlink Token on this network \n     */\n    function getChainlinkToken() public view returns (address) {\n        return address(LINK);\n    }\n\n    /**\n     * Callback function used by VRF Coordinator\n     */\n    function fulfillRandomness(bytes32 /* requestId */, uint256 randomness) internal override {\n        randomResult = randomness;\n    }\n}\n",
  "sourcePath": "/Users/fernandomaximof/Documents/dynamic-erc721/contracts/RandomNumberConsumer.sol",
  "compiler": {
    "name": "solc",
    "version": "0.8.11+commit.d7f03943.Emscripten.clang"
  },
  "schemaVersion": "3.4.3",
  "updatedAt": "2022-02-15T10:05:27.579Z",
  "devdoc": {
    "kind": "dev",
    "methods": {},
    "version": 1
  },
  "userdoc": {
    "kind": "user",
    "methods": {
      "constructor": {
        "notice": "Constructor inherits VRFConsumerBase  Network: Kovan Chainlink VRF Coordinator address: 0xdD3782915140c8f3b190B5D67eAc6dc5760C46E9 LINK token address:                0xa36085F69e2889c224210F603D836748e7dC0088 Key Hash: 0x6c3699283bda56ad74f6b855546325b68d482e983852a7a82979cc4807b641f4"
      },
      "getChainlinkToken()": {
        "notice": "Requests the address of the Chainlink Token on this network "
      },
      "getRandomNumber()": {
        "notice": "Requests randomness from a user-provided seed"
      }
    },
    "version": 1
  }
}